:020000040800F2
:10000000301D00201D0A00087D0A00087D0A000836
:100010007D0A00087D0A00087D0A00080000000033
:100020000000000000000000000000007D0A000841
:100030007D0A0008000000007D0A0008A5010008F4
:100040007D0A00087D0A00087D0A00087D0A000874
:100050007D0A00087D0A00087D0A00087D0A000864
:100060007D0A00087D0A00087D0A00087D0A000854
:10007000352200085D2200087D0A00087D0A00087C
:100080007D0A00087D0A00087D0A00087D0A000834
:100090007D0A00087D0A00087D0A00087D0A000824
:1000A0007D0A00087D0A00087D0A00087D0A000814
:1000B000050700087D0A00087D0A00087D0A00087F
:1000C0007D0A00087D0A00087D0A00087D0A0008F4
:1000D0007D0A00087D0A00087D0A00087D0A0008E4
:1000E0007D0A00087D0A00087D0A00080000000063
:1000F0000000000000000000000000000000000000
:1001000000000000000000005FF808F180B483B038
:1001100000AF03463960FB7197F90730002B0BDA0B
:100120000D49FB7903F00F03043B3A68D2B2120188
:10013000D2B20B441A7609E0084997F907303A68B9
:10014000D2B21201D2B20B4483F8002300BF0C37A5
:10015000BD4680BC704700BF00ED00E000E100E05C
:1001600080B582B000AF78607B68B3F1807F01D347
:10017000012311E00A4A7B6823F07F43013B53606F
:100180000F214FF0FF30FFF7C1FF054B00229A60AF
:10019000034B07221A60002318460837BD4680BD6E
:1001A00010E000E080B400AF044B1B680133034A49
:1001B000136000BFBD4680BC704700BFAC08002084
:1001C00080B582B000AF786039600B4B00221A60B6
:1001D0003868FFF7C5FF00BF084B1B68002BFBD03A
:1001E000054B1A687B689A42F5D3044B00221A60CB
:1001F00000BF0837BD4680BDAC08002010E000E01D
:1002000080B582B000AF7860064B1B68064AA2FB3F
:1002100003239B0919467868FFF7D2FF00BF083710
:10022000BD4680BD04000020D34D621080B485B06F
:1002300000AF786039600023FB817B681B88FB81FD
:100240007B682E4A934213D07B682D4A93420FD08D
:100250007B68B3F1804F0BD07B682A4A934207D06A
:100260007B68294A934203D07B68284A934208D18D
:10027000FB8923F07003FB813B685A88FB89134399
:10028000FB817B68224A93420CD07B68214A9342CF
:1002900008D0FB8923F44073FB813B68DA88FB8933
:1002A0001343FB817B68FA891A803B689A887B68D4
:1002B0009A853B681A887B681A857B680F4A934247
:1002C0000FD07B680E4A93420BD07B68124A934250
:1002D00007D07B68114A934203D07B68104A93424F
:1002E00004D13B681B7A9AB27B681A867B6801222C
:1002F0009A8200BF1437BD4680BC7047002C014075
:10030000003401400004004000080040000C0040A0
:100310000010004000140040004001400044014033
:100320000048014080B483B000AF78600B46FB709A
:10033000FB78002B08D07B681B889BB243F001033D
:100340009AB27B681A8007E07B681B889BB223F017
:1003500001039AB27B681A8000BF0C37BD4680BC8F
:10036000704700BF80B487B000AFF8600846114600
:100370001A4603467B810B463B811346FB800023D4
:10038000FB820023BB8200237B82FB681B89FB82EC
:10039000FB681B8BBB82FB681B8C7B82FB8A23F078
:1003A0000703FB82FA8A7B891343FB82BB8A23F40F
:1003B000407323F00303BB82BB8A43F4807343F092
:1003C0000103BB827B8A23F022037B82FB881B0113
:1003D0009AB23B8913439AB27B8A13437B82FB68B0
:1003E000FA8A1A81FB68BA8A1A83FB687A8A1A84A5
:1003F00000BF1C37BD4680BC704700BF80B586B0CB
:1004000000AF4FF4806000F067FC0121042000F091
:100410004DFD0121012000F049FD012141F20400C0
:1004200000F044FD0323BB700F233B801023FB70BF
:100430003B461946184800F025FBA0233B801823B3
:10044000FB703B461946144800F01CFB40233B80E0
:100450002823FB703B4619460F4800F013FB3B1D59
:10046000184601F0AFFC4FF48273FB804FF4007329
:10047000FB8102237B810123BB8100233B823B1D47
:100480001946064801F05AFC0121044801F0BEFC5F
:1004900000BF1837BD4680BD000801400030014054
:1004A00080B500AF0221074800F0B6FB0A20FFF735
:1004B000A7FE0221034800F0A1FB3220FFF7A0FEB7
:1004C00000BF80BD0008014080B500AF112001F0E1
:1004D000E3FD9620FFF794FE292001F0DDFD00BF2B
:1004E00080BD00BF80B582B000AF164B7B60082195
:1004F000154800F091FB7B685A1C7A601B78FB70F2
:10050000FB785A1EFA70002B10D07B685A1C7A6058
:100510001B78184601F0E6FDFB781946786801F073
:10052000FFFDFB787A6813447B60E4E700BF082195
:10053000054800F063FB002000F01CF800BF0837FE
:10054000BD4680BD7C6D00080008014080B500AF4D
:10055000FFF754FF01F0D2FCFFF7A2FFFFF7B4FF53
:10056000FFF7C0FF0121024800F048FB00BF80BD3B
:100570000008014080B582B000AF0346FB71FB79F3
:10058000282B02D0FB79E82B07D1114BF0221A80DF
:10059000104B4FF4A0721A8006E00D4B4FF4A0727E
:1005A0001A800C4BF0221A8008210B4800F034FB13
:1005B000362001F097FDFB1D0121184601F0B0FD2A
:1005C0000821054800F01AFB00BF0837BD4680BD72
:1005D00002000020000000200008014090B585B016
:1005E00000AF0446084611461A462346FB800346E0
:1005F000BB800B467B8013463B800821164800F0E9
:100600000BFB2A2001F06EFDFB88BB817B88FB8100
:1006100000F058F807F10C030221184601F09EFD86
:1006200000F030F82B2001F05DFDBB88BB813B88DA
:10063000FB8100F047F807F10C030221184601F096
:100640008DFD00F01FF80821034800F0D7FA00BF25
:100650001437BD4690BD00BF0008014080B400AF14
:10066000024B1B881846BD4680BC70470000002026
:1006700080B400AF024B1B881846BD4680BC704753
:100680000200002080B400AF0D4A0D4B1B889BB2C6
:1006900023F040039BB21380094A094B1B889BB28D
:1006A00023F400639BB21380054A054B1B889BB261
:1006B00043F040039BB2138000BFBD4680BC70472F
:1006C0000030014080B400AF0D4A0D4B1B889BB237
:1006D00023F040039BB21380094A094B1B889BB24D
:1006E00043F400639BB21380054A054B1B889BB201
:1006F00043F040039BB2138000BFBD4680BC7047EF
:100700000030014080B500AF4FF080424FF0804391
:100710001B8A9BB223F001039BB21382054B1B88FB
:100720000A220549184601F09DFA024B00221A8060
:1007300000BF80BDB0080020EC08002090B58BB051
:1007400002AF0346FB80002000F0A2FCFB885B08A0
:10075000FB82FB8A5B08BB82BB8A5B087B82FFF75C
:100760007DFF03463B82FFF783FF0346FB810023A7
:10077000FB830AE0FA89F88B47F6EF33002100F09B
:1007800001FDFA8BFB881344FB83FA8B3B8A9A4268
:10079000F0D30023BB830AE03A8AB98B47F6EF33E4
:1007A000002000F08FFCBA8BFB881344BB83BA8B0C
:1007B000FB899A42F0D300237B836CE000233B83C8
:1007C00061E0FC8AFA8A398B788B4FF47873009356
:1007D000234600F06FFF7A8BFB8A134498B23A8B62
:1007E000FB8A134499B2FC8AFA8A4AF6E5730093AD
:1007F000234600F017FC7A8BBB8A134498B23A8BDD
:10080000BB8A134499B27A8A4AF6E57300F0E0FC99
:100810007A8BFB8A13449AB2BB8A134498B23A8B00
:10082000FB8A13449AB2BB8A134499B27A8A4FF472
:10083000787300F057FE7A8BBB8A134498B23A8BD8
:10084000BB8A13449BB24FF6E072194600F05EFC7F
:100850007A8BFB8A134498B23A8BFB8A134499B281
:100860007A8BFB8813449CB23A8BFB8813449AB270
:100870004FF6FF7300931346224600F05DFE3A8B5D
:10088000FB8813443B833A8BFB899A4299D37A8B3A
:10089000FB8813447B837A8B3B8A9A428ED300BFBA
:1008A0002437BD4690BD00BF80B500AF154A154B3B
:1008B0001B6843F0010313601249124B5A68124B34
:1008C00013404B600F4A0F4B1B6823F0847323F4D3
:1008D000803313600B4A0B4B1B6823F48023136097
:1008E000084A084B5B6823F4FE035360054B4FF442
:1008F0001F029A6000F00CF8044B4FF000629A60FF
:1009000000BF80BD001002400000FFF800ED00E0D5
:1009100080B500AF00F002F800BF80BD80B483B0A6
:1009200000AF00237B6000233B603A4A394B1B68D1
:1009300043F480331360374B1B6803F400333B6090
:100940007B6801337B603B68002B03D17B68B3F588
:10095000A06FF0D12F4B1B6803F40033002B02D0A3
:1009600001233B6001E000233B603B68012B4BD13E
:10097000294A294B1B6843F010031360264A264B73
:100980001B6823F003031360234A234B1B6843F0C7
:10099000020313601F4A1F4B5B6853601D4A1D4BC7
:1009A0005B6853601B4A1B4B5B6843F48063536076
:1009B000184A184B5B6823F47C135360154A154B97
:1009C0005B6843F4E8135360124A124B1B6843F010
:1009D0008073136000BF0F4B1B6803F00073002B84
:1009E000F9D00C4A0B4B5B6823F003035360094AB0
:1009F000084B5B6843F00203536000BF054B5B6824
:100A000003F00C03082BF9D100BF0C37BD4680BCA6
:100A1000704700BF001002400020024080B582B045
:100A200000AF114B7B60114B3B6007E03B681A1D28
:100A30003A607A68111D796012681A603B680C4A46
:100A40009342F3D30B480C494FF000028842B8BFE1
:100A500040F8042BFADBFFF727FF00F0EBF800BFAC
:100A60000837BD4680BD00BFB874000800000020F4
:100A7000AC080020AC0800202C19002080B400AF86
:100A8000FEE700BF80B489B000AF78603960002312
:100A9000FB6100233B610023BB610023FB6000235B
:100AA0007B610023BB603B68DB7803F00F03FB61D5
:100AB0003B68DB7803F01003002B05D03B689B7884
:100AC0001A46FB691343FB613B681B88DBB2002BB2
:100AD00044D07B681B687B610023BB6138E0012246
:100AE000BB6902FA03F3FB603B681B881A46FB688C
:100AF00013403B613A69FB689A4226D1BB699B006F
:100B0000FB600F22FB6802FA03F3BB60BB68DB43A8
:100B10007A6913407B61FA69FB6802FA03F37A6928
:100B200013437B613B68DB78282B05D10122BB692D
:100B30009A407B685A6108E03B68DB78482B04D117
:100B40000122BB699A407B681A61BB690133BB61B2
:100B5000BB69072BC3D97B687A691A603B681B881D
:100B6000FF2B46D97B685B687B610023BB613AE061
:100B7000BB690833012202FA03F3FB603B681B8860
:100B80001A46FB6813403B613A69FB689A4227D1D9
:100B9000BB699B00FB600F22FB6802FA03F3BB609A
:100BA000BB68DB437A6913407B61FA69FB6802FA30
:100BB00003F37A6913437B613B68DB78282B05D10B
:100BC000BB69083301229A407B685A613B68DB7835
:100BD000482B05D1BB69083301229A407B681A6112
:100BE000BB690133BB61BB69072BC1D97B687A69DB
:100BF0005A6000BF2437BD4680BC704780B483B0C4
:100C000000AF78600B467B807A887B681A6100BFF2
:100C10000C37BD4680BC704780B483B000AF7860AD
:100C20000B467B807A887B685A6100BF0C37BD46D3
:100C300080BC704780B58EB000AF01F025FB234823
:100C400001F0A2FBFFF782FC00F0B6F94820FFF7A5
:100C500091FC002000F01CFA002000F0F1FE0320BF
:100C600000F0DEFE6F23FB860023BB8600237B861D
:100C700000233B86164801F087FB00F08FF90346FE
:100C8000FB85FA8DFB8E9A4207D0FFF757FDFB8D4F
:100C9000FB86BB8E0133BB8602E07B8E01337B86F5
:100CA0003B8E01333B863B8E322B0BD900233B8698
:100CB0007A8EBB8E381D074901F076FB3B1D184626
:100CC00001F062FB0A20FFF79BFAD6E7E07200080A
:100CD000F47200080C73000880B485B000AF78602F
:100CE0000023FB60094B5B68FB60FB6823F46053E7
:100CF000FB607B68DB00FA681343FB60034AFB6818
:100D0000536000BF1437BD4680BC704700100240DE
:100D100080B487B000AF786000237B6100233B6123
:100D20000023FB600023BB604C4B5B6803F00C03AB
:100D30007B617B69042B07D0082B09D0002B33D1B2
:100D40007B68474A1A6033E07B68454A1A602FE0A7
:100D5000424B5B6803F470133B61404B5B6803F4E8
:100D60008033FB603B699B0C02333B61FB68002BCB
:100D700006D13B693B4A02FB03F27B681A6017E02D
:100D8000364B5B6803F40033002B06D03B69354AD1
:100D900002FB03F27B681A600AE03B69304A02FBFF
:100DA00003F27B681A6003E07B682D4A1A6000BF7B
:100DB0002A4B5B6803F0F0037B617B691B097B6155
:100DC000294A7B6913441B78DBB2BB607B681A68D5
:100DD000BB68DA407B685A60204B5B6803F4E063D1
:100DE0007B617B691B0A7B611F4A7B6913441B780B
:100DF000DBB2BB607B685A68BB68DA407B689A608C
:100E0000164B5B6803F460537B617B69DB0A7B6193
:100E1000154A7B6913441B78DBB2BB607B685A6858
:100E2000BB68DA407B68DA600C4B5B6803F44043D4
:100E30007B617B699B0B7B610C4A7B6913441B784C
:100E4000DBB2BB607B68DA68BB68B2FBF3F27B683D
:100E50001A6100BF1C37BD4680BC704700100240BD
:100E600000127A0000093D00180000202800002030
:100E700080B483B000AF78600B46FB70FB78002B2A
:100E800006D00949084B5A697B6813434B6106E059
:100E90000549054B5A697B68DB4313404B6100BF32
:100EA0000C37BD4680BC70470010024080B483B050
:100EB00000AF78600B46FB70FB78002B06D0094929
:100EC000084B9A697B6813438B6106E00549054B23
:100ED0009A697B68DB4313408B6100BF0C37BD46CA
:100EE00080BC70470010024080B483B000AF7860CF
:100EF0000B46FB70FB78002B06D00949084BDA69DA
:100F00007B681343CB6106E00549054BDA697B68D2
:100F1000DB431340CB6100BF0C37BD4680BC70473C
:100F20000010024080B483B000AF78600B46FB70C5
:100F3000FB78002B06D00949084BDA687B6813431D
:100F4000CB6006E00549054BDA687B68DB4313405C
:100F5000CB6000BF0C37BD4680BC7047001002401C
:100F600080B483B000AF78600B46FB70FB78002B39
:100F700006D00949084B1A697B6813430B6106E0E8
:100F80000549054B1A697B68DB4313400B6100BFC1
:100F90000C37BD4680BC70470010024080B400AFE3
:100FA000044B9B8C9BB25B089BB21846BD4680BC31
:100FB000704700BF0008004080B584B000AF012139
:100FC0000820FFF773FF01210420FFF78DFF48235E
:100FD000FB730323BB73C023BB8107F10C031946CA
:100FE0000E48FFF74FFD4FF6FF73BB8000233B8099
:100FF00000237B803B4619460948FFF717F9002379
:10100000002201210648FFF7ADF901210448FFF74E
:1010100089F900BF1037BD4680BD00BF000C0140FC
:101020000008004090B585B000AF04460846114660
:101030001A462346FB800346BB800B467B80134643
:101040003B807B883A8802FB03F3FB60FA887B884D
:1010500013449BB2013B9CB2BA883B8813449BB2B9
:10106000013B9BB2B988F8882246FFF7B7FA2C20DB
:1010700001F012F8FFF726FB3B8CF968184601F0E7
:10108000A9F8FFF7FFFA00BF1437BD4690BD00BFB7
:1010900090B585B002AF0346FB80FFF7DFFA034649
:1010A0001C46FFF7E5FA03461A46FB8800931346F1
:1010B000224600210020FFF7B5FF00BF0C37BD46D8
:1010C00090BD00BF90B585B002AF044608461146FA
:1010D0001A462346FB800346BB800B467B801346A3
:1010E0003B807B88012B06D13A88B988FB8818465B
:1010F00000F00CF807E07A88B988F8883B880093FC
:101100000123FFF78FFF0C37BD4690BD80B582B03D
:1011100000AF0346FB800B46BB8013467B80BB8839
:10112000FA88B988F888FFF759FA2C2000F0B4FF44
:10113000FFF7C8FA7B880121184601F04BF8FFF74A
:10114000A1FA00BF0837BD4680BD00BF80B582B0A0
:1011500000AF0346FB800B46BB8013467B80BB88F9
:10116000FA88B988F888FFF739FA2C2000F094FF44
:101170007B880121184601F02DF800BF0837BD46D5
:1011800080BD00BF90B585B002AF04460846114649
:101190001A462346FB800346BB800B467B801346E2
:1011A0003B807B88012B06D13A88B988FB8818469A
:1011B000FFF7ACFF08E07A88B988F8883B8800938D
:1011C00013460122FFF72EFF0C37BD4690BD00BF2E
:1011D00090B587B000AF0446084611461A4623462C
:1011E000FB800346BB800B467B8013463B807B889D
:1011F000002B06D13A88B988FB881846FFF786FF8E
:10120000BEE07B88C3F101039BB2FB820123BB825A
:101210007B881A46D203D31A5B009BB27B820023E1
:101220003B827B88FB81FFF74DFABA887B881344A9
:1012300099B23A88FB881846FFF788FFBA887B88FE
:10124000D31A99B23A88FB881846FFF77FFFFA88CD
:101250007B8813449BB23A88B9881846FFF776FF1B
:10126000FA887B88D31A9BB23A88B9881846FFF768
:101270006DFF7DE0B7F91630002B0BDBFB89013BDE
:10128000FB817B8A02339BB27B82FA8A7B8A13447E
:101290009BB2FB823B8A9BB201339BB23B82BB8AEF
:1012A00002339BB2BB82FA8ABB8A13449BB2FB8295
:1012B0003A8AFB88134498B2BA88FB8913449BB2DC
:1012C0003A881946FFF742FF3B8AFA88D31A98B248
:1012D000BA88FB8913449BB23A881946FFF736FF58
:1012E0003A8AFB88134498B2BA88FB89D31A9BB216
:1012F0003A881946FFF72AFF3B8AFA88D31A98B230
:10130000BA88FB89D31A9BB23A881946FFF71EFFA9
:10131000FA88FB89134498B23A8ABB8813449BB27B
:101320003A881946FFF712FFFA88FB89D31A98B258
:101330003A8ABB8813449BB23A881946FFF706FFE6
:10134000FA88FB89134498B23B8ABA88D31A9BB2B5
:101350003A881946FFF7FAFEFA88FB89D31A98B241
:101360003B8ABA88D31A9BB23A881946FFF7EEFE39
:10137000B7F91020FB899A42FFF67CAFFFF782F99C
:101380001C37BD4690BD00BF90B587B000AF044686
:10139000084611461A462346FB800346BB800B468F
:1013A0007B8013467B707B88002B00F097807B88C6
:1013B000012B06D1BA8DB988FB881846FFF7A6FE27
:1013C0008DE07B88C3F101039BB2FB820123BB82CA
:1013D0007B881A46D203D31A5B009BB27B82002320
:1013E0003B827B88FB8173E0B7F91630002B0BDB67
:1013F000FB89013BFB817B8A02339BB27B82FA8AA9
:101400007B8A13449BB2FB823B8A9BB201339BB223
:101410003B82BB8A02339BB2BB82FA8ABB8A1344EB
:101420009BB2FB827B7803F00103002B25D03A8A24
:10143000FB88134498B2BA88FB89D31A99B2FB8906
:101440005B009AB23B8D13449BB201339AB2BB8DC1
:10145000FFF798FEFA88FB89134498B23B8ABA8852
:10146000D31A99B23B8A5B009AB23B8D13449BB26C
:1014700001339AB2BB8DFFF785FE7B7803F0020340
:10148000002B25D03B8AFA88D31A98B2BA88FB89F8
:10149000D31A99B2FB895B009AB23B8D13449BB27D
:1014A00001339AB2BB8DFFF76DFEFA88FB89D31A20
:1014B00098B23B8ABA88D31A99B23B8A5B009AB237
:1014C0003B8D13449BB201339AB2BB8DFFF75AFE9A
:1014D000B7F91020FB899A4286DB00E000BF1C3779
:1014E000BD4690BD90B585B002AF04460846114692
:1014F0001A462346FB800346BB800B467B8013467F
:101500003B80BA887B88D31A99B27B885B009BB2F8
:1015100001339AB23B88F888FFF734FE7A88B9889D
:10152000F8883B880193002300930323FFF72CFFE7
:1015300000BF0C37BD4690BD90B589B000AF0446E2
:10154000084611461A462346FB800346BB800B46DD
:101550007B8013463B807A88FB88D31A002B05DA00
:10156000FA887B88D31A9BB29BB204E07A88FB8806
:10157000D31A9BB29BB27B833A88BB88D31A002BC9
:1015800005DABA883B88D31A9BB29BB204E03A884A
:10159000BB88D31A9BB29BB23B83B7F91A30002B9E
:1015A0000AD1B7F91830002B06D13A8EB988FB88DA
:1015B0001846FFF7ABFD7AE0B7F91820B7F91A30F3
:1015C0009A42CCBF01230023DBB2FB82B7F916306D
:1015D000002B0BD0FB88BB82BB88FB80BB8ABB8007
:1015E0007B887B823B887B807B8A3B80FA887B88F8
:1015F0009A420BD9FB883B827B88FB803B8A7B80AD
:10160000BB88FB813B88BB80FB893B807A88FB8859
:10161000D31A9BB2BB813A88BB88D31A002B05DA58
:10162000BA883B88D31A9BB29BB204E03A88BB8845
:10163000D31A9BB29BB27B81B7F90C30DA0F1344FB
:101640005B10FB83BA883B889A4202D20123BB839A
:1016500029E04FF6FF73BB8325E0B7F91630002B66
:1016600006D03A8EF988BB881846FFF74FFD05E093
:101670003A8EB988FB881846FFF748FDFA8B7B89BC
:10168000D31A9BB2FB83B7F91E30002B08DABA8B52
:10169000BB881344BB80FA8BBB8913449BB2FB838A
:1016A000FB880133FB80FA887B889A42D5D924379E
:1016B000BD4690BD90B583B000AF044608461146C4
:1016C0001A462346FB800346BB800B467B801346AD
:1016D0003B807B88002B39D03B88002B36D07B8821
:1016E000012B06D13B8B3A88B988F888FFF74AFD71
:1016F0002DE03B88012B06D13B8B7A88B988F8888E
:10170000FFF7E0FC23E03B8B7A88B988F888FFF785
:10171000D9FCBA883B8813449BB2013B99B23B8BFE
:101720007A88F888FFF7CEFC3B8B3A88B988F8882E
:10173000FFF728FDFA887B8813449BB2013B98B2DF
:101740003B8B3A88B988FFF71DFD00E000BF0C37DE
:10175000BD4690BD80B582B000AF78607B68264AF8
:1017600093420AD101214FF48040FFF7DBFB0021B7
:101770004FF48040FFF7D6FB3AE07B681F4A934264
:101780000AD101214FF40030FFF7EAFB00214FF4AA
:101790000030FFF7E5FB2BE07B68194A93420AD142
:1017A00001214FF48020FFF7DBFB00214FF4802064
:1017B000FFF7D6FB1CE07B68124A93420AD1012155
:1017C0004FF40020FFF7CCFB00214FF40020FFF77F
:1017D000C7FB0DE07B680C4A934209D101214FF40D
:1017E0008010FFF7BDFB00214FF48010FFF7B8FB1E
:1017F00000BF0837BD4680BD0038014000440040AE
:1018000000480040004C00400050004080B58CB0C3
:1018100000AF786039600023FB620023BB620023C5
:101820007B6200233B620023FB617B68FB617B687A
:101830001B8A9BB2FB62FA6A4CF6FF731340FB6291
:101840003B68DB881A46FB6A1343FB62FB6A9AB269
:101850007B681A827B689B899BB2FB62FA6A4EF6B0
:10186000F3131340FB623B689A883B681B89134360
:101870009AB23B685B8913439BB21A46FB6A1343D7
:10188000FB62FB6A9AB27B689A817B689B8A9BB2F7
:10189000FB62FA6A4FF6FF431340FB623B689B8989
:1018A0001A46FB6A1343FB62FB6A9AB27B689A8210
:1018B00007F108031846FFF72BFAFB692F4A9342FA
:1018C00002D17B69BB6201E03B69BB627B689B899B
:1018D0009BB29BB21BB2002B0CDABA6A13469B0078
:1018E00013449A001A443B681B685B00B2FBF3F395
:1018F0007B620BE0BA6A13469B0013449A001A44B9
:101900003B681B689B00B2FBF3F37B627B6A1C4A5B
:10191000A2FB03235B091B01FB62FB6A1B09642218
:1019200002FB03F37A6AD31A3B627B689B899BB202
:101930009BB21BB2002B0CDA3B6ADB003233104A3D
:10194000A2FB03235B0903F00703FA6A1343FB625C
:101950000BE03B6A1B013233094AA2FB03235B09FC
:1019600003F00F03FA6A1343FB62FB6A9AB27B68C7
:101970001A8100BF3037BD4680BD00BF003801402E
:101980001F85EB5180B483B000AF78600B46FB70CD
:10199000FB78002B08D07B689B899BB243F40053F3
:1019A0009AB27B689A8107E07B689B899BB223F49B
:1019B00000539AB27B689A8100BF0C37BD4680BC49
:1019C000704700BF80B483B000AF78600B467B8067
:1019D0007B88C3F308039AB27B689A8000BF0C37F8
:1019E000BD4680BC704700BF80B485B000AF786052
:1019F0000B467B800023FB737B681B889AB27B8835
:101A000013409BB2002B02D00123FB7301E00023A3
:101A1000FB73FB7B18461437BD4680BC704700BF84
:101A200080B483B000AF0346FB71044AFB791370A6
:101A300000BF0C37BD4680BC704700BF2C000020A3
:101A400080B483B000AF0346FB80044AFB88138058
:101A500000BF0C37BD4680BC704700BF300000207F
:101A600080B485B000AF78600A4B1B68002B02D1B0
:101A7000084B094A1A60074B1B68FB60054B1A6844
:101A80007B681344034A1360FB6818461437BD464D
:101A900080BC7047B40800202C19002080B485B0A9
:101AA00000AF786039600023FB607B681B68FB60D7
:101AB000FB6823F4FF4323F07003FB603B689A68E4
:101AC0003B681B6A1A433B681B691A433B685B69A6
:101AD0001A433B689B691A433B68DB691A433B68BE
:101AE0005B6A1A433B689B6A1343FA681343FB60C3
:101AF0007B68FA681A603B68DA687B685A603B6802
:101B00001A687B689A603B685A687B68DA6000BF35
:101B10001437BD4680BC704780B483B000AF786096
:101B20007B6800221A607B6800225A607B68002272
:101B30009A607B680022DA607B6800221A617B6809
:101B400000225A617B6800229A617B680022DA6178
:101B50007B6800221A627B6800225A627B6800223E
:101B60009A6200BF0C37BD4680BC704780B483B01A
:101B700000AF78600B46FB70FB78002B06D07B68CB
:101B80001B6843F001027B681A6006E07B681A68F4
:101B90004FF6FE7313407A68136000BF0C37BD46E2
:101BA00080BC704780B485B000AFF860B960134660
:101BB000FB71FB79002B06D0FB681A68BB681A43DF
:101BC000FB681A6006E0FB681A68BB68DB431A40D2
:101BD000FB681A6000BF1437BD4680BC704700BF69
:101BE00080B485B000AF78600023FB730023BB6036
:101BF0007B6803F08053002B03D00B4B1B68BB604A
:101C000002E00A4B1B68BB60BA687B681340002B7C
:101C100002D00123FB7301E00023FB73FB7B18461A
:101C20001437BD4680BC70470004024000000240EB
:101C300080B483B000AF78607B6803F08053002BE2
:101C400003D0064A7B68536002E0054A7B68536014
:101C500000BF0C37BD4680BC704700BF0004024087
:101C60000000024080B48FB000AFF860B9607A60C5
:101C700007F114033B637B680A2B04D1FB68002B3C
:101C800001DA012300E00023BB62BB6A002B02D013
:101C9000FB685B4200E0FB68FB621DE0FB6A7A6860
:101CA00093FBF2F2796801FB02F29B1A7B62FA6AFB
:101CB0007B6892FBF3F3FB623B6B5A1C3A637A6AD4
:101CC000092A04DC7A6AD2B23032D2B203E07A6AEC
:101CD000D2B25732D2B21A70FB6A002BDED107F1B2
:101CE00014033A6B9A42D9D03A6B07F11403D31A12
:101CF0007B63BB6A002B11D0BB685A1CBA602D22D3
:101D00001A707B6B01337B6308E0BB685A1CBA60B6
:101D10003A6B013A3A633A6B12781A7007F114037E
:101D20003A6B9A42F1D8BB685A1CBA6000221A700A
:101D30007B6B18463C37BD4680BC704780B485B08D
:101D400000AF786039600023FB817B681B88FB81D2
:101D5000FB8903F44153FB813B681A883B685B882D
:101D600013439AB23B689B8813439AB23B68DB8863
:101D700013439AB23B681B8913439AB23B685B8951
:101D800013439AB23B689B8913439AB23B68DB8941
:101D900013439AB2FB891343FB817B68FA891A804B
:101DA0007B689B8B9BB223F400639AB27B689A8317
:101DB0003B681A8A7B681A8200BF1437BD4680BC14
:101DC000704700BF80B483B000AF78607B680022AA
:101DD0001A807B6800225A807B6800229A807B6888
:101DE0000022DA807B6800221A817B6800225A81F7
:101DF0007B6800229A817B680022DA817B68072257
:101E00001A8200BF0C37BD4680BC704780B483B0D7
:101E100000AF78600B46FB70FB78002B08D07B6826
:101E20001B889BB243F040039AB27B681A8007E09C
:101E30007B681B889BB223F040039AB27B681A80B0
:101E400000BF0C37BD4680BC704700BF80B483B074
:101E500000AF78600B467B8013467B707B78002B4D
:101E600008D07B689B889AB27B8813439AB27B68C0
:101E70009A8009E07B689B889AB27B88DB439BB29F
:101E800013409AB27B689A8000BF0C37BD4680BC75
:101E9000704700BF80B485B000AF78600B467B8090
:101EA0000023FB737B681B899AB27B8813409BB22B
:101EB000002B02D00123FB7301E00023FB73FB7BAB
:101EC00018461437BD4680BC704700BF80B483B04D
:101ED00000AF0346FB71084997F907305B09FA79AF
:101EE00002F01F02012000FA02F241F8232000BF95
:101EF0000C37BD4680BC704700E100E080B500AF04
:101F000001210120FEF7B4FF0D20FFF7DFFF0122C2
:101F100002210B48FFF746FE0C20FFF7D7FF0122F6
:101F200002210848FFF73EFE012202210648FFF782
:101F30008DFF012201210448FFF788FF00BF80BD0B
:101F4000300002401C0002400030014080B582B0E9
:101F500000AF786039601548FFF7DEFD134B144A77
:101F60001A60124B4FF480525A627B680F4A5360DA
:101F70000E4A3B68D3600D4B00221A620B4B802245
:101F80005A610A4B10229A60084B0022DA61074B13
:101F900000229A6105490748FFF780FD01210548A5
:101FA000FFF7E4FD00BF0837BD4680BDFC080020F8
:101FB0000C3001403000024080B582B000AF786044
:101FC00039601648FFF7A8FD144B154A1A60134BE9
:101FD0004FF480525A627B68104A53600F4A3B6844
:101FE000D3600E4B20221A620C4B00225A610B4B1D
:101FF00010229A60094B4FF48062DA61074B4FF46C
:1020000080729A6105490748FFF748FD012105489C
:10201000FFF7ACFD00BF0837BD4680BDFC080020BF
:102020000C3001403000024080B582B000AF7860D3
:1020300039601648FFF770FD144B154A1A60134BB0
:102040004FF480525A627B68104A53600F4A3B68D3
:10205000D3600E4B00221A620C4B80225A610B4B4C
:1020600010229A60094B4FF48062DA61074B4FF4FB
:1020700080729A6105490748FFF710FD0121054864
:10208000FFF774FD00BF0837BD4680BDFC08002087
:102090000C3001403000024080B582B000AF0346F2
:1020A000FB7108210D48FEF7B7FD04210B48FEF730
:1020B000B3FDFB1D01211846FFF748FF00BF80213B
:1020C0000748FFF7E7FE0346012BF8D00821034835
:1020D000FEF794FD00BF0837BD4680BD00080140F3
:1020E0000030014080B582B000AF0346FB7104218F
:1020F0000948FEF791FDFB1D01211846FFF726FF59
:1021000000BF80210548FFF7C5FE0346012BF8D02C
:1021100000BF0837BD4680BD0008014000300140C7
:1021200080B582B000AF7860396004210948FEF7BD
:1021300065FD39687868FFF709FF00BF8021064810
:10214000FFF7A8FE0346012BF8D000BF0837BD46B5
:1021500080BD00BF000801400030014080B582B062
:1021600000AF7860396004210948FEF747FD3968FF
:102170007868FFF759FF00BF80210648FFF78AFE05
:102180000346012BF8D000BF0837BD4680BD00BF15
:10219000000801400030014080B582B000AF786097
:1021A000396004210948FEF729FD39687868FFF78E
:1021B00003FF00BF80210648FFF76CFE0346012B9A
:1021C000F8D000BF0837BD4680BD00BF0008014001
:1021D0000030014080B584B000AF03463960FB8019
:1021E00008211348FEF718FD2C20FFF77BFF13E0B2
:1021F0003B68B3F5803F02D23B689BB201E04FF6EB
:10220000FF73FB81FA89BB1D11461846FFF7C4FF17
:10221000FB893A68D31A3B603B68002BE8D1082160
:102220000348FEF7EBFC00BF1037BD4680BD00BF82
:102230000008014080B500AF2020FFF7D1FC034625
:10224000012B06D100210448FFF790FC2020FFF766
:10225000EFFC00BF80BD00BF1C00024080B500AF96
:102260004FF40070FFF7BCFC0346012B07D100219F
:102270000448FFF77BFC4FF40070FFF7D9FC00BF68
:1022800080BD00BF3000024080B586B000AF0121A4
:102290000120FEF70BFE01210820FEF707FE0121B9
:1022A0004FF48020FEF720FE4FF48063BB820323AF
:1022B000BB751823FB7507F1140319461548FEF783
:1022C000E1FB4FF40063BB820423FB7507F11403A9
:1022D00019461048FEF7D6FB0F48FFF73BFA4FF4BC
:1022E00016537B6000233B8100237B810023BB814D
:1022F0000C23FB8100233B823B1D19460648FFF758
:1023000085FA01210448FFF73DFB00BF1837BD46A1
:1023100080BD00BF000C01400048004080B582B085
:1023200000AF0346FB7100BF40210848FFF75CFB8C
:102330000346002BF8D0FB799BB219460348FFF700
:1023400041FB00BF0837BD4680BD00BF00480040CC
:1023500080B584B000AF78600023FB6009E0FB68C3
:102360005A1CFA601A467B6813441B781846FFF71C
:10237000D5FFFB687A6813441B78002BEFD100BFB0
:102380001037BD4680BD00BF80B582B000AF786019
:102390007868FFF7DDFF0348FFF7DAFF00BF083773
:1023A000BD4680BD2C7300080EB40146F0B54FF653
:1023B000FF779CB021AC54F8042B0D4823466FF0F6
:1023C0000045029106914FF4027602A9006801943B
:1023D000ADF81670ADF814600495079500F00AF892
:1023E000029B00221A701CB0BDE8F04003B0704799
:1023F000600400202DE9F04FBFB00C4607919146D4
:102400000D93099002F03EFB03681846149303F005
:10241000FBF9A38915901D0603D52369002B01F054
:10242000698100231A460DF1B80A119316930A9395
:1024300023932293CDF884A01292139299F800303E
:102440004C46EBB1252B02D11AE0252B03D014F812
:10245000013F002BF9D1C9EB04058DB1229B239AD2
:1024600001332A44072BCAF80090CAF8045023927B
:10247000229300F336830AF1080A0A9B2B440A933D
:102480002378002B00F0F1814FF0FF3B5D460023E5
:102490001A468DF8673019460B930693637804F15A
:1024A000010909F10109A3F12000582800F2418631
:1024B000DFE810F0FA033F063F0603043F063F063D
:1024C0003F063F063F063F0659000B043F066600E5
:1024D000D6033F06F203B005B005B005B005B00560
:1024E000B005B005B005B0053F063F063F063F0604
:1024F0003F063F063F063F063F063F06D605FA0465
:102500003F06FA043F063F063F063F0636053F06F4
:102510003F063E053F063F063F063F063F0668056D
:102520003F063F06C1053F063F063F063F063F0602
:102530003F063F063F063F063F061C060206FA041A
:10254000FA04FA04140602063F063F06AA043F06F0
:102550009C05B5046D0011043F0619043F063C04B8
:102560003F063F0677040D9C236818460B932346CD
:10257000002803F104030D9306DA0B9B5B420B93D7
:10258000069B43F00403069399F8003089E7AB46B5
:102590000D9A0027069830217823BB4514688DF8E2
:1025A000681002F104024FF000058DF869308DF8D3
:1025B000677040F00201C0F2318620F0800141F0E6
:1025C0000201069154EA05010D920F93B04800F004
:1025D00035812EAE230943EA0573290904F00F0261
:1025E0000D461C46835C06F8013D54EA0503F1D113
:1025F0002EAB9B1B0C930C9B5B45B8BF5B460893B3
:102600000023109317B1089B01330893069B13F026
:1026100002030E9302D0089B02330893069B13F02B
:10262000840840F020810B9B089A9D1A002D40F3EE
:102630001A81102D2399229A964F25DD5046102499
:10264000CA46C146B046099E04E0103D102D00F177
:10265000080015DD01321031072A2391229207600C
:102660004460F2DD21AA0799304603F0FBF8002808
:1026700040F00281103D102D2EA82399229AE9DC0A
:102680004646C846D146824601326C18072A239432
:102690002292CAF80070CAF8045000F3DA809DF85C
:1026A00067700AF1080A77B1229B013401330DF1FA
:1026B00067010122072B239422938AE8060000F386
:1026C00027820AF1080A0E9B6BB1229B0234013368
:1026D0001AA90222072B239422938AE8060000F30A
:1026E00023820AF1080AB8F1800F00F036810C9BB2
:1026F000C3EB0B07002F3ADD102F229BDFF89881E8
:1027000028DD41462246B0464FF0100B099D079C3C
:102710000E4604E0103F102F0AF1080A16DD0133BF
:102720001032072B239222938AE84008F2DD21AA77
:102730002146284603F096F8002840F09D80103F7F
:10274000102F0DF1B80A239A229BE8DC144632467A
:102750004646904601333C44072B23942293CAF803
:102760000080CAF8047000F3C7810AF1080A069BCA
:10277000DA0500F19380229B0C9901330C44072B5E
:102780002394CAF80060CAF80410229300F3E4818D
:102790000AF1080A069B590736D50B9B089A9D1A21
:1027A000002D31DD102D229B3A4F22DD1026DDF861
:1027B0002480DDF81CB004E0103D102D0AF1080A59
:1027C00017DD01331034072B23942293CAF80070CD
:1027D000CAF80460F0DD21AA5946404603F042F8E9
:1027E000002849D1103D102D0DF1B80A239C229BE1
:1027F000E7DC01332C44072B23942293CAF80070A2
:10280000CAF8045000F38A840A9B0B9A08998A42FA
:10281000ACBF9B185B180A93002C40F05981002331
:1028200022930DF1B80A09E60027BB458DF86770C1
:10283000C0F2FE84069B23F080030693BBF1000FD9
:1028400040F067845F464FF0000BCDF830B02EAEFD
:10285000D1E621AA0799099803F004F860B99DF818
:1028600067700DF1B80A239C1DE7239B23B10998DB
:1028700021AA079902F0F6FF079B9B8913F0400FEE
:102880000A9B18BF4FF0FF3318463FB0BDE8F08FEA
:102890006473000830730008847300080F9B652B75
:1028A00040F39E80129813990022002304F07CF8D4
:1028B000002800F06181229BAD49013301340122DF
:1028C000072B239422938AE8060000F348840AF138
:1028D000080A1B9B119A934203DB069BDB077FF5DB
:1028E00059AF229B15990133149A0C44072B23945A
:1028F000CAF80020CAF80410229300F36E860AF189
:10290000080A119B5D1E002D7FF744AF102D229BFE
:10291000DFF8608240F315811026099FDDF81CB0B6
:1029200005E00AF1080A103D102D40F30A81013339
:102930001034072B23942293CAF80080CAF804604D
:10294000EFDD21AA5946384602F08CFF002893D1CA
:102950000DF1B80A239C229BE5E70B9B089A9F1A6E
:10296000002F7FF7C4AE102F229BDFF8088229DDED
:10297000404652462146B0461025099CDDF81CA071
:10298000064604E0103F102F02F1080215DD013366
:102990001031072B2391229316605560F2DD21AA96
:1029A0005146204602F05EFF00287FF465AF103FDD
:1029B000102F2EAA2399229BE9DC924632460C4620
:1029C0004646904601333C44072B23942293CAF891
:1029D0000080CAF8047000F31C850AF1080A86E634
:1029E000119B229D012B04F1010405F1010540F327
:1029F000D9840123072D2394CAF800602295CAF8D0
:102A0000043000F3EA840AF1080A159A0135149B90
:102A10001444072D23942295CAF80030CAF80420E4
:102A200000F3E9840AF1080A00231298139900229E
:102A300003F0BAFF119B002800F0EA805E1E002E12
:102A400040F3F580102EDFF82C8129DDCDF8309091
:102A50001027C146DDF824B0DDF81C8004E0103EEC
:102A6000102E0AF1080A18DD01351034072D2394C1
:102A70002295CAF80090CAF80470F0DD21AA4146F8
:102A8000584602F0EFFE00287FF4F6AE103E102EFE
:102A90000DF1B80A239C229DE6DCC846DDF8309093
:102AA00001353444072D23942295CAF80080CAF8D2
:102AB000046040F3BA8021AA0799099802F0D2FE77
:102AC00000287FF4D9AE239C229D0DF1B80AAEE018
:102AD00021AA0799099802F0C5FE00283FF49FAE8D
:102AE000CAE621AA0799099802F0BCFE00287FF4E3
:102AF000C3AE0DF1B80AC0E421AA0799099802F003
:102B0000B1FE00287FF4B8AE0DF1B80A239C2EE682
:102B100021AA0799099802F0A5FE00287FF4ACAE1F
:102B20000DF1B80A239CCEE521AA0799099802F075
:102B300099FE00287FF4A0AE0DF1B80A239CD2E5DF
:102B4000B84601332C44072B23942293CAF8008003
:102B5000CAF804507FF71CAE21AA0799099802F021
:102B600081FE00287FF488AE239C0DF1B80A11E69F
:102B700080730008847300081B9D002D40F3FC82C5
:102B8000109B119A9342A8BF1346002B1D460DDDE2
:102B9000229B2C440133072B2394CAF80060CAF807
:102BA0000450229300F3EC850AF1080A109B002DD3
:102BB000A8BF5B1B002B1D4640F39083102D229B6A
:102BC000DFF8148540F3CE8441462246B0461027F4
:102BD000DDF824B0079C0E4605E00AF1080A103D16
:102BE000102D40F3BB8401331032072B2392229324
:102BF0008AE8C000F1DD21AA2146584602F032FEE3
:102C000000287FF439AE0DF1B80A239A229BE6E73B
:102C1000013B013501361C44072DCAF8006022959E
:102C20002394CAF804303FF746AF0AF1080A169A0F
:102C3000013514441DAB072D23942295CAF80420B6
:102C4000CAF800307FF7A4AD21AA0799099802F0CD
:102C500009FE00287FF410AE0DF1B80A239C99E517
:102C600099F8003009F101042A2B00F0EE86A3F157
:102C70003000092898BF002500F2388614F8013B7F
:102C800005EB850500EB4505A3F130000928F5D9D2
:102C900045EAE575A14606E4069B43F080030693EA
:102CA00099F80030FFF7FDBB99F8003000297FF458
:102CB000F8AB01222021FFF7F4BB069B43F0010390
:102CC000069399F80030FFF7ECBB99F80030012229
:102CD0002B21FFF7E6BB069B43F02003069399F8F0
:102CE0000030FFF7DEBB0D9AAB46166800250F9348
:102CF0008DF86750141D002E00F07C85BBF1000F8D
:102D0000C0F237855A462946304602F06BF9002852
:102D100000F0A785AB46831B0C9323EAE3730D9465
:102D20000893CDF840B09DF867706BE40F93AB4605
:102D3000002A40F0B486069A12F0200300F0308199
:102D40000D9C0027073424F0070303F10801BB455D
:102D50000D91D3E900458DF86770C0F2AF8222F083
:102D60008003069354EA050300F03581002D08BF67
:102D70000A2CC0F035812EAE204629460A220023B7
:102D800003F06CFE303206F8012D20462946002360
:102D90000A2203F063FE04460D4654EA0503EBD114
:102DA00026E40F93AB46002A40F08F86069BC64868
:102DB0009D0640F14A810D9C073424F0070303F17E
:102DC00008020D92D3E90045069A12F0010700F0BF
:102DD000338254EA05033FF427AD9DF83C200027D9
:102DE0008DF86920069A3023BB458DF868308DF840
:102DF000677042F00203C0F2238522F0800343F0A3
:102E000002030693FFF7E5BB99F800306C2B00F046
:102E1000DA83069840F010000690FFF742BB0F934C
:102E2000AB46002A40F03786069A12F0200300F0E5
:102E30008D800D9C0027073424F0070303F108015F
:102E4000BB450D91D3E900458DF867700BDB22F08F
:102E50008003069354EA050306D1BBF1000F00F08E
:102E6000E5850024002500272EAEE20842EA4572DF
:102E7000E90804F007030D461446303354EA05020E
:102E800006F8013DF1D1069AD1077FF5B1AB302BA1
:102E90003FF4AEAB3022731E06F8012C2EAAD21AD4
:102EA0000C921E46FFF7A7BB0F93AB46002A40F0DB
:102EB000EE85069B0D9C1A0704F1070440F144833C
:102EC00024F0070303F108020D921A685B6812925E
:102ED0001393129D139C2846214602F059FC0128A9
:102EE00040F0A482284621460022002303F066FD1C
:102EF000002840F0AE849DF867700699734E21F06B
:102F00008001734B06910F9903224FF0000B08923A
:102F10004729D8BF1E460C92CDF840B0FFF772BBD0
:102F2000069B43F00803069399F80030FFF7B9BAFF
:102F30000F93AB46002A40F0D985069B43F010035F
:102F40000693069A12F020037FF473AF069911F0EE
:102F5000100200F0C7820D98BBF1000F0246046812
:102F60008DF8673002F104024FF00005C0F25B8477
:102F700021F08001069154EA05010D923FF46DAFF6
:102F80001F4671E70F93AB46002A40F0BB85069BB6
:102F900043F010030693069A12F020037FF4D0AE9C
:102FA000069911F0100200F074820D98BBF1000F29
:102FB000024604688DF8673002F104024FF0000504
:102FC000C0F23B8421F08001069154EA05010D9284
:102FD0001F467FF4CBAEBBF1000F3FF434AC0024AE
:102FE0003EAE303406F8414DFFF702BB002A40F0F8
:102FF0008185069B9B0640F190820D9A134604330F
:103000000D930A9B1168DD171A462B46C1E9002370
:10301000FFF714BAA3F1300000231C4619F8013B56
:1030200004EB840400EB4404A3F130000928F5D933
:103030000B94FFF738BA0F93AB46002A40F0378560
:10304000069B24489D063FF5B6AE069BDC0640F184
:103050003C820D9A00251346043314680D93B3E6A1
:103060000F93AB46002A40F01E85069B43F01003E9
:103070000693069B980640F1F2800D9C073424F0DD
:103080000704D4E9002304F108011D4614460D91FC
:10309000002A73F10003C0F2F380BBF1000F9DF82A
:1030A0006770C0F20B81069B23F08003069354EAFD
:1030B00005037FF45BAE8EE70F93AB46002AD8D0B2
:1030C0008DF86710D5E700BF6473000844730008EB
:1030D000407300085073000884730008069B43F097
:1030E0004003069399F80030FFF7DBB90D990F9371
:1030F0000A68002301201F468DF867309B46109315
:103100000B1D08908DF890200D930C9024AEFFF7C6
:103110007DBA002400250027FFF75BBA21AA079992
:10312000099802F09FFB00287FF4A6AB239CFFF7D1
:103130006BBB0F93002A40F0A6840F9A002A3FF43D
:1031400094AB002301211F4608918DF890208DF843
:1031500067309B4610930C9124AEFFF757BA21AA13
:103160000799099802F07EFB00287FF485AB0DF1EA
:10317000B80A239CFFF7ADBB229BB9490133013448
:103180000122072B239422938AE8060000F3C182D0
:103190000AF1080A2DB9119B1BB9069BDF077FF5C1
:1031A000F9AA229B15990133149A0C44072B2394F6
:1031B000CAF80020CAF80410229300F389830AF1A8
:1031C000080A6D42002D40F3C682102DDFF8A08260
:1031D00040F3F48241462246B0461027DDF824B081
:1031E000079C0E4605E00AF1080A103D102D40F339
:1031F000E18201331032072B239222938AE8C00028
:10320000F1DD21AA2146584602F02CFB00287FF46C
:1032100033AB0DF1B80A239A229BE6E79148069159
:103220000F9354EA05030D924FF000077FF4D1A9E4
:1032300000240025FFF7CDB9BBF1000F8DF86770B2
:10324000C0F29E8122F08003069354EA05037FF4C6
:10325000C0A9BBF1000F7FF45CAFFFF7F3BA069B88
:10326000D90640F107810D9A13461C680433E5170F
:1032700022460D932B46002A73F10003BFF60DAFD3
:1032800064424FF02D0765EB4505BBF1000F8DF84B
:103290006770FFF66BAD069B23F08003069365E530
:1032A0000D9ABBF1000F134614688DF8677003F197
:1032B00004034FF0000580F265810D9354EA050385
:1032C0007FF454AD8CE621AA0799099802F0CAFA56
:1032D00000287FF4D1AA239C0DF1B80A109A1B9BF9
:1032E00032441746119A93424BDB069AD50748D4CD
:1032F00011990E44F51BCB1A9D42A8BF1D46002D07
:103300002E460DDD229A2C440132072A2394CAF856
:103310000070CAF80450229200F35D820AF1080A94
:10332000002EB4BF1D469D1B002D7FF733AA102D24
:10333000229BDFF83C817FF704AC47461026DDF87E
:103340001CB0DDF8248005E00AF1080A103D102DBC
:103350007FF7F6AB01331034072B23942293CAF87E
:103360000070CAF80460EFDD21AA5946404602F019
:1033700079FA00287FF480AA0DF1B80A239C229BD9
:10338000E4E7229A1598013214990444072A2394F9
:10339000CAF80010CAF80400229200F3FE810AF174
:1033A000080AA5E7069BD8073FF523AB0123072DA5
:1033B0002394CAF800602295CAF804307FF735AC30
:1033C00021AA0799099802F04DFA00287FF454AA1F
:1033D0000DF1B80A239C229D29E421AA0799099896
:1033E00002F040FA00287FF447AA0DF1B80A239CA6
:1033F000229DFFF70ABB21AA0799099802F032FA29
:1034000000287FF439AA0DF1B80A239C229DFFF70A
:103410000BBB21AA0799099802F024FA00287FF42F
:103420002BAA0DF1B80A239CFFF761B912981399E2
:1034300002F0AEF9002840F0DD8006990A4E21F036
:1034400080010A4B06910F9903228346089210903F
:103450004729D8BF1E460C929DF86770FFF7D2B877
:1034600080730008647300084C73000848730008F8
:1034700084730008069B0D9A13F0400F13463FF427
:10348000F4AEB2F900400433E5170D9322462B4603
:10349000FEE5069911F040073FF402AF0D98BBF12D
:1034A000000F034604888DF8672003F104034FF0F2
:1034B0000005C0F23E8121F08001069154EA050129
:1034C0000D9317467FF452AC85E50D9A069B0025B7
:1034D00013F0400F134603F104030CBF1468148863
:1034E0000D9371E4069911F0400755D00D98BBF18A
:1034F000000F034604888DF8672003F104034FF0A2
:103500000005C0F2138121F08001069154EA050103
:103510000D933FF4A2AC1746A6E4069BDF060BD43E
:10352000069B5E0608D50D9A136804320D92BDF80D
:1035300028201A80FEF782BF0D9A136804320D927C
:103540000A9A1A60FEF77ABF24F0070423681293E0
:103550006368139304F108030D93BAE414463246EA
:103560004646904601332C44072B23942293CAF8F5
:103570000080CAF804503FF7A6AE0AF1080AADE68B
:103580000D9A4EE6069A0D9322F08002069254EAB6
:1035900005027FF4EBAB1EE50D9ABBF1000F13465D
:1035A00014688DF8677003F104034FF00005C0F252
:1035B000BD80069A0D9322F08002069254EA05021D
:1035C0007FF452AC49E4069B09F1010943F0200362
:1035D000069399F80030FEF764BF21AA079909986D
:1035E00002F040F900287FF447A90DF1B80A239CA6
:1035F000FFF787B90F9BBBF1FF3F23F02003089330
:1036000000F09A80472B04D1BBF1000F08BF4FF0A8
:10361000010B069BDDF8488043F480730E93139BE7
:103620001F1EB6BF03F1004700232D2317930F9BE6
:10363000662B00F06E81462B00F09181089B1FA83D
:10364000452B18BF5D461CA908BF0BF1010504906E
:1036500003911BA802213B4602904246019500912E
:10366000099800F0E9FA0F9B0646672B00F0EB8003
:103670000F9B472B00F02D827419404639460022DB
:10368000002303F091F9002840F0E9801F9B9C4241
:1036900006D930215A1C1F9219701F9B9C42F9D8E1
:1036A0009B1B1193089B472B00F0C0800F9B652B41
:1036B00040F31A820F9B662B1B9B109300F04281F4
:1036C000109A11998A42C0F21581069BD90700F120
:1036D000948122EAE2730C9267220F92179A002AD1
:1036E00040F0978008930E9B934606939DF8677071
:1036F000FEF788BF4021099801F0C8F9079A1060C9
:103700001061002800F0D781079A40235361FEF72B
:1037100088BE21AA0799099802F0A4F800287FF42E
:10372000ABA80DF1B80A1B9D239C33E50D93FFF761
:103730009ABB0D931746C1E54FF0060B69E721AA26
:103740000799099802F08EF800287FF495A8239C29
:10375000229B0DF1B80A119901330C44072B2394D5
:103760002293CAF80060CAF804107FF711A8FFF787
:10377000F3B9304602F048F8AB460346FFF7CCBA3F
:1037800021AA0799099802F06DF800287FF474A81F
:103790000DF1B80A239CFFF709BA21AA07990998E5
:1037A00002F060F800287FF467A80DF1B80A1B9BAF
:1037B000239C9DE5144632464646904601332C44F0
:1037C000072B23942293CAF80080CAF80450B6DC71
:1037D0000AF1080ABFE721AA0799099802F042F8FE
:1037E00000287FF449A81B9B119A239CD31A0DF142
:1037F000B80A95E55B46062B28BF06230C9323EAFF
:10380000E373B346374610960D940893BB4EFEF70C
:10381000F9BE08930E9B2D2706938DF867704FF025
:10382000000BFEF7F0BE0D92FFF71DBB1B9BDD1CCE
:1038300023DB9B4521DB109342E70D921F463DE5BC
:103840000693FEF7C6BE069BDA073FF515AF1F9B32
:1038500026E72D231F468DF86730FFF74EBB234622
:103860001EE72BEAEB73CDF830B0089383460D9436
:1038700010909DF86770FEF7C5BE0F9A023A0F923E
:10388000013B9DF83C20002B1B93B8BF5B428DF899
:103890007420B4BF2D222B22092B8DF8752074DCE7
:1038A000303330228DF877308DF876201EAB1DAA8C
:1038B0009B1A119A1693012A13440C9340F3D38058
:1038C0000C9B002201330C93109223EAE37305E76B
:1038D00021AA0799099801F0C5FF00287EF4CCAF12
:1038E0000DF1B80A1B9D239C229B6AE4A14600258A
:1038F000FEF7D9BD109B6722002BD8BFC3F102058C
:10390000119BC8BF0125EB180C930F9223EAE373B8
:10391000E4E61FA81CA9049003911BA803210290B0
:1039200042463B46CDF804B00091099800F084F976
:103930005D46064600EB0B043378302B50D01B9DC0
:103940002C449AE6002B68DDBBF1000F5DD1069A8E
:10395000D4075AD41A4623EAE3730C92BEE61FA892
:103960001CA9049003911BA80321029042463B46E8
:10397000CDF804B00091099800F05EF95D46064666
:103980000F9B7419462BD7D077E60DF183000446C0
:103990005B4A82FB0321DA17C2EBA10101EB810232
:1039A000A3EB4202303209290B4604F8012DEFDC6B
:1039B00022463033DBB202F8013D904240F2828071
:1039C0000DF17601224601E012F8013B904201F828
:1039D000013BF9D1431C1B1B0DF17602134466E732
:1039E000404639460022002302F0DEFF0028A6D11F
:1039F000C5F101051B952C443FE6109B672201335E
:103A00000C930F9223EAE37368E6109B0BF1010518
:103A10002B440C9323EAE37360E6BBF1000F2CD137
:103A2000069BD80729D401230C9357E6069B5F46D3
:103A3000DB0705D53EAE302306F8413DFEF7D8BD85
:103A4000CDF830B02EAEFEF7D6BD0D9899F8013006
:103A500005680430002D0D90A146BEF622AD4FF052
:103A6000FF35FEF71EBD069B13F001037FF428AF60
:103A700010930C9B23EAE37330E60BF102030C93E3
:103A800023EAE3732AE68DF86710FFF756BB8DF83B
:103A90006710FFF70EBA8DF86710FFF7C5B98DF8FC
:103AA0006710FFF748B98DF86710FFF7DEBA8DF899
:103AB0006710FFF7C5BA099A0C2313604FF0FF3067
:103AC000FEF7E3BE0DF17603F1E68DF86710FFF720
:103AD0006DB9069BDB073FF553AF1F9B9B1B1193F3
:103AE000089B472B3FF4A2AE1B9BC9E68DF86710DD
:103AF000FFF723BA8DF86710FFF77BBA78730008D9
:103B0000676666668DF86710FFF741BA2DE9F04FDA
:103B100003690F6983B09F4200F38980013F01F17F
:103B2000140600F1140A56F827305AF827200133FA
:103B3000B2FBF3F8BB00009306EB03095344019377
:103B4000B8F1000F3BD000231C46B446D6465CF8C3
:103B500004BBDEF800501FFA8BF208FB02324FEA7A
:103B60001B4B130C08FB0B3392B2A41A1FFA83FBF6
:103B7000AAB22244CBEB154404EB224492B242EAAF
:103B80000442E1454EF8042B4FEA24444FEA134324
:103B9000DDD2009B5AF803308BB9019C231F9A4554
:103BA0000CD254F8043C4BB9A4F1080302E01A68A3
:103BB000043B1AB99A4507F1FF37F8D30761044669
:103BC00001F0DEFC00282EDB00235546194608F1E3
:103BD000010856F8042B2B6890B2081A120C99B2FF
:103BE000C2EB1343421803EB224392B242EA034270
:103BF000B14545F8042B4FEA2341EAD25AF8272071
:103C00000AEB87037AB91A1F92450BD253F8042C9A
:103C100042B9083B02E01A68043B1AB99A4507F119
:103C2000FF37F8D32761404603B0BDE8F08F00208E
:103C300003B0BDE8F08F00BF2DE9F04F016C99B0E3
:103C4000814692469B46259C49B1426C0123934094
:103C50008B604A6001F0AEFA0023C9F84030BBF136
:103C6000000FD84633DB00232360A34B1A4608EA33
:103C70000303934214D0002200235046594602F019
:103C800093FE054648B3249A01231360269B002B1C
:103C900000F0C58099481860013819B0BDE8F08F70
:103CA00042F20F73249A1360BAF1000F00F0A28061
:103CB0009348269B002BF0D0C378002B00F0B180F6
:103CC00000F10803269A136019B0BDE8F08F0123B4
:103CD0002BF000482360C346C7E716AA17AB019232
:103CE000009352465B46484601F0FEFC5FEA1854DA
:103CF000099040F08880169D179C2C4404F23243B2
:103D0000202B40F38A82C3F1400304F2124008FAE8
:103D100003F82AFA00F040EA080002F067FB0123EA
:103D2000013CA1F1F8710F930022764B02F020FACA
:103D30006BA3D3E9002302F0CFFB6BA3D3E90023ED
:103D400002F018FA064620460F4602F05FFB68A311
:103D5000D3E9002302F0C0FB02460B463046394649
:103D600002F008FA06460F4602F050FE00220390C9
:103D700000233046394602F021FE002840F0298217
:103D8000039E162E00F222825F49524601EBC601C5
:103D90005B46D1E9000102F02FFE002800F04282CC
:103DA000731E039300230D932C1B631E049300F1D9
:103DB0002B8200230693039B002BC0F21C82049AE3
:103DC0000C9311461944002304910B93229B092B59
:103DD00029D8052B40F35286043B22930025229BD1
:103DE000023B032B00F22F86DFE813F027032002AB
:103DF00032035304424B454AC8F31300002814BF52
:103E00001846104655E7CBF3130343F07F510F9547
:103E10005046A4F2FF3441F44011169D84E73C481B
:103E20003BE7C31C4EE70021C9F8441048462291E5
:103E300001F098F94FF0FF33229A07930E93012374
:103E400008902392C9F840000A93179B002BC0F2F8
:103E5000CA80039A0E2A00F3C6802B4B03EBC203E1
:103E600018CBCDE90434239B002BC0F2FC825646CC
:103E70005F46DDE904AB304652465B46394602F008
:103E800055FC02F0C3FD044602F0C0FA52465B4600
:103E900002F022FB02460B463046394602F068F932
:103EA000079E089F04F13005012E3D7002460B4627
:103EB00007F101055ED00022164B02F00DFB002237
:103EC000002306460F4602F06FFD002878D1CDF89A
:103ED0001890DDF81CA0DDF820B0DDE9048928E0A9
:103EE00061436F63A787D23FB3C8608B288AC63F00
:103EF000FB799F501344D33F0000F07F817300088B
:103F0000A07300080000F83FC07300089473000815
:103F100080730008000024400022C34B02F0DCFA4A
:103F20000022002306460F4602F03EFD002840F026
:103F3000B38342464B463046394602F0F7FB02F067
:103F400065FD044602F062FA42464B4602F0C4FAAE
:103F500002460B463046394602F00AF904F13006B3
:103F600005F8016BCBEB0506564502460B46D3D14F
:103F7000DDF818901046194602F0FCF806460F4688
:103F800002460B46DDE9040102F018FD40B9DDE907
:103F9000040132463B4602F007FD88B1E3070FD526
:103FA00015F8014C6B1E089A04E09A4200F02C842C
:103FB00013F8014D392C03F10105F6D001341C70C2
:103FC0000999484601F0F6F80022039B2A70249ACA
:103FD00001331360269B002B00F0A88308981D6016
:103FE00019B0BDE8F08F0A9A002A00F01281229AD7
:103FF000012A40F35A82079B0B9A5F1EBA42C0F215
:104000009883D71B079B002BC0F28C84069D079BCF
:10401000069A01211A440692049A48461A440492C8
:1040200001F060F9064665B1049900290B4608DDE8
:10403000A942A8BF2B46069AED1AD21ACB1A0692AD
:1040400004930B9B002B40F3FD820A9A002A00F098
:104050000382002F00F0008231463A46484601F0C4
:10406000E9F9DDF82480014642460646484601F05B
:1040700043F941460446484601F09CF80B9BDB1B84
:104080000B9340F0E8810121484601F02BF90C9B8D
:104090008046002B00F01B8201461A46484601F07C
:1040A000C9F9229B8046012B40F3F9820027D8F8FA
:1040B000103008EB8303186901F0C6F8C0F1200046
:1040C000049A104410F01F0000F0F881C0F12003A2
:1040D000042B40F3CB84069BC0F11C0003440693E1
:1040E0001346034405440493069B002B05DD21463B
:1040F0001A46484601F0EEF90446049B002B05DD04
:1041000041461A46484601F0E5F980460D9B002BD2
:1041100040F07D82079B002B40F396820A9B002B88
:1041200040F0F681DDF820A0079F554604E02146C7
:10413000484601F049F8044641462046FFF7E6FCB0
:10414000303005F8010BCAEB0503BB424FF00A0201
:104150004FF00003EBDB089B079A8246012AACBFB5
:104160009B1801331D464FF0000B214601224846A3
:1041700001F0B0F94146099001F002FA002840F33D
:104180000E8315F8012C6B1E089904E08B4200F099
:10419000798213F8012D392A03F10105F6D0013295
:1041A0001A704146484601F005F8002E3FF408AF6A
:1041B000BBF1000F05D0B34503D05946484600F087
:1041C000F9FF3146484600F0F5FFF9E601230D936B
:1041D000EAE5DDF80C80404602F018F902460B468D
:1041E0003046394602F0E0FB00287FF4C9AD08F103
:1041F000FF330393C4E5069A039BD21A5B420B93E9
:10420000002306920C93E1E55B420693002304939E
:10421000D1E50B9F069D0A9E05E7C3F120080AFA27
:1042200008F07AE50D90BFE50000244000230A93D2
:10423000039B239A13440E930133002B079340F3FF
:104240008582079C26460021172EC9F844100BD9F9
:10425000012204235B0003F11400B042114602F175
:104260000102F7D9C9F84410484600F07BFF0E2C34
:104270000890C9F840003FF6E8AD002D3FF4E5ADE9
:104280005746D8460399CDE91078002940F3938228
:10429000924B01F00F020E1103EBC203F006D3E9BB
:1042A000004540F14E828E4B5046D3E908235946D3
:1042B00002F03CFA82468B4606F00F064FF00308E8
:1042C00086B1874FF10709D5D7E900232046294653
:1042D00002F002F904460D4608F10108761007F1D4
:1042E0000807EFD122462B465046594602F01EFAE7
:1042F00006460F460D9B43B100227A4B30463946A5
:1043000002F05CFB002840F02383404602F07EF878
:1043100032463B4602F0E0F8734B002201F02AFFE0
:10432000079B0446A1F15075002B00F0E181039B2F
:104330001393079B12930A9B002B00F09882129A0A
:10434000664B002003EBC20353E90223674902F0E6
:10435000EDF922462B4601F00BFF82468B46304694
:10436000394602F053FB044602F050F802460B4671
:104370003046394601F0FCFE3034089DE4B2064672
:104380000F462C7002460B4650465946013502F046
:1043900033FB00284ED132463B460020514901F004
:1043A000E7FE02460B465046594602F025FB002820
:1043B00040F00E83129A012A40F3B481129B089AAE
:1043C000134498460FE032463B460020454901F031
:1043D000CFFE52465B4602F0F1FA002840F0F88228
:1043E000454500F09F81504659460022404B02F05F
:1043F00073F800223E4B82468B463046394602F027
:104400006BF80F46064602F001FB044601F0FEFF82
:1044100002460B463046394601F0AAFE3034E4B27B
:1044200005F8014B52465B4606460F4602F0C6FAB7
:104430000028C8D0139B0393C2E500230A93239B53
:10444000002B40F388811E461C460E930793FAE624
:1044500001230A93F3E709940B9A0999484600F05F
:10446000E9FF04460FE6079B002B3FF700AD40F045
:10447000D982DDE9040100221E4B02F02DF85246DC
:104480005B4602F0AFFADDF81C804646002800F0DB
:10449000F180239B089DDB4303934146484600F08F
:1044A00089FE002E3FF48CAD8BE60F9A002A00F0B7
:1044B000418203F233430B9F069DA9E51C20069B16
:1044C000054403440693049B034404930CE6229B97
:1044D000012B40F381820C9F0120F1E5C07300089D
:1044E000887400080000F03F00001C400000E03F1E
:1044F0000000244000001440314600230A224846B0
:1045000000F062FE0E9B0646002B40F39782079355
:10451000002D05DD31462A46484600F0DBFF064601
:10452000002F40F07B810696079B089A013BD31829
:10453000099317460AF00103C246DDF818B00A9342
:1045400051462046FFF7E2FA31460546204601F083
:1045500017F85A4604905146484601F031F8C268AF
:10456000804605F13003002A49D1014620460793D1
:1045700001F006F841460690484600F01BFE069AF8
:10458000079B2AB9229919B90A99002900F03682A5
:1045900004990029C0F2E48005D1229919B90A9939
:1045A000002900F0DD80002A00F34C81099A07F110
:1045B000010897423B70454600F053812146002395
:1045C0000A22484600F000FE5E45044631464FF0A0
:1045D00000034FF00A0248460BD000F0F5FD5946A3
:1045E000064600230A22484600F0EEFD4746834671
:1045F000A6E700F0E9FD474606468346A0E70146E8
:104600004846069300F0D6FD0122069BC0E74146CE
:10461000204600F0B5FF0028BFF67CAD2146039C84
:104620000023013C0A224846039400F0CDFD0A9B7A
:104630000446002B7FF460AF0E9B002B40F3F68105
:1046400007936FE5099C1EE5229B022B7FF766AD61
:10465000079B002B40F07A8141460522484600F036
:10466000B3FD01468046204600F08AFF00280994E9
:104670007FF70FAF039A08993123013203920B7031
:104680004D1C0AE7039A312301320392089A1370F2
:1046900087E501230A93CBE5DDF8189090E4BAF1A1
:1046A000000F7FF403ADCBF31303002B40F04081E8
:1046B0002BF000473F0D3F0537B1069B0127013323
:1046C0000693049B013304930C9B0120002B3FF4C1
:1046D000F7ACECE4404601F099FE32463B4601F06F
:1046E000FBFE0022BF4B01F045FD0446A1F15075D1
:1046F000304639460022BC4B01F03AFD22462B469B
:1047000006460F4602F078F98046002840F0068100
:10471000224605F100433046394602F04FF908B110
:104720004646B6E6DDE910ABFFF78FBB0898FFF70A
:10473000B4BA0B9B0C9AFB1A1A440B970C920027E5
:1047400060E4DDE910AB4FF00208B9E51C4600213A
:10475000C9F8441088E5012423940E940794F6E7E1
:10476000002AD046CDF818B09A4611DD2146012224
:10477000484600F0AFFE4146044600F001FF002825
:1047800040F34981BAF1390F00F0078105F1310A90
:10479000B34687F800A07D1C069E099401E504D16C
:1047A0001AF0010F01D0ECE4154615F8013C6A1E21
:1047B000302BF9D0F5E4039B5C42002C00F0C18063
:1047C000DDE91001894B04F00F0203EBC203D3E9CA
:1047D000002301F081FE241106460F4600F02B81D4
:1047E000834D4FF00208E20709D5D5E90023304692
:1047F000394601F071FE06460F4608F101086410C3
:1048000005F10805EFD175E5089930220A70039A81
:1048100015F8014C01320392FFF7D0BB716848468E
:1048200000F0A0FC0546336906F10C019A1C9200C9
:104830000C3000F01DFC29460122484600F04AFEDB
:10484000069071E6392BCDF818B0D04600F0A5805F
:1048500003F1010AB34687F800A07D1C069E099467
:104860009FE45A46D046B3469A4616467DE4129BCC
:104870005E4903F1FF3A01EBCA012246D1E900018A
:104880002B4601F029FECDE914013946304602F0ED
:10489000BDF8044601F0BAFD0B46024639463046E3
:1048A00001F066FC129B0F4608993034012B064636
:1048B0000C7001F101051FD0129B089AA846134401
:1048C0009B4600224B4B3046394601F005FE0F4611
:1048D000064602F09BF8044601F098FD02460B469E
:1048E0003046394601F044FC303408F8014BC345EA
:1048F00006460F46E5D1554400223F4BDDE9140141
:1049000001F038FC32463B4602F058F800284CD003
:10491000139B039315F8014CFFF744BB4FF00008BD
:104920004646A7E6069B079A9D1A0023FFF770BB31
:104930000027C9E6169B0B9FC3F13603069DFFF7C0
:1049400067BBDDE910674FF00208D3E40994A0E5E6
:10495000079B002B3FF4BEAE0E9B002B7FF7E2AE11
:104960000022244B3046394601F0B6FD06460F467C
:1049700008F1010001F04AFD32463B4601F0ACFD72
:104980000022184B01F0F6FB039A0E9B013A0446F5
:104990001392A1F150751293CDE43922B3460994D4
:1049A000069E3A707D1CFFF7EEBBDDE91423002064
:1049B000114901F0DDFB32463B4602F01DF808B913
:1049C000B0E6154615F8013C6A1E302BF9D031E5EA
:1049D000139B0393FFF7E6BABAF1000F7FF47BADA8
:1049E00061E600BF00001C4000001440C0730008D6
:1049F00088740008000024400000E03F392BCDF807
:104A000018B0D046DDF810B09A46C6D0BBF1000F02
:104A10003FF7BCAEBCE67FF4BBAE1AF0010F3FF42B
:104A2000B7AEAFE64FF00008464632E5229B022BB8
:104A300021DC0E9B04E64FF002085BE4229B022B74
:104A400019DC0E9B63E50024C9F844402146484622
:104A500000F088FB4FF0FF3307930E93012308907B
:104A60002394C9F840000A93FFF7EFB93FF43CAB39
:104A7000C0F13C0023E50E9B0793E9E50125FFF714
:104A8000AEB900BF00487047640400202DE9F04F24
:104A900001F10B05162D83B0064640F2A08035F0DB
:104AA000070500F1C080A94200F2BD8000F056FB6E
:104AB000B5F5FC7FC0F090826B0A00F0BB80042B40
:104AC00000F27781A80900F1390E4FEA4E01383023
:104AD000BE4F07EB81014C680839A14207D1AEE017
:104AE000002A80F2AE80E468A14200F0A8806368EA
:104AF00023F003035A1B0F2AF2DDB4493C6901F18C
:104B0000080E744500F0A881636823F003035A1B64
:104B10000F2A00F38E81002AC1F814E0C1F810E0DA
:104B200080F29380B3F5007F80F05C81DB084A68F7
:104B30004FEAA3094FF0010C013351F833800CFA0E
:104B400009F901EBC30C49EA0202ACF1080CC4F804
:104B50000CC0C4F808804A6041F83340C8F80C40E3
:104B6000831001249C4094427CD8144206D120F04A
:104B700003006400144200F10400FAD007EBC009FE
:104B8000CC468046DCF80C108C4507D166E1002A43
:104B900080F27481C9688C4500F060814B6823F015
:104BA00003035A1B0F2AF2DD0C46CB6854F808CFDA
:104BB00045F00108C1F804800D4442F00101CCF831
:104BC0000C303046C3F808C07D613D61C5F80CE08B
:104BD000C5F808E06960AA5000F0C2FA1FE0102989
:104BE00021D800F0BBFA102506230220774F07EBEF
:104BF00083035C68A3F10802944200F03881636883
:104C0000E16823F0030323445A68A56842F00102D7
:104C1000E96030468D605A6000F0A2FA0834204600
:104C200003B0BDE8F08F002420460C23336003B0AE
:104C3000BDE8F08F80214FF0400E3F2048E77046DE
:104C40005BE723445A68E168DFE723445A6830464B
:104C500042F001025A60083400F082FA204603B0A4
:104C6000BDE8F08FBC68636823F00308A84504D34F
:104C7000C5EB08030F2B00F38C80554BDFF86091D8
:104C80001A68D9F800302A44013304EB080A00F00E
:104C9000608102F580520F3222F47F6222F00F020F
:104CA00011463046019200F09DFDB0F1FF3F834672
:104CB000019A00F05881824500F2FC80454BDA45AC
:104CC00019681144196000F05381D9F80000DFF829
:104CD00010E101301BBFCAEB0B0A5144CEF800B003
:104CE00019601BF0070100F01781C1F10800C1F540
:104CF0008051834408315A44C2F30B02C2EB0109CC
:104D000049463046019300F06DFD431C019B00F0C5
:104D10003F81CBEB00024A4442F001021968BC42D9
:104D20004944C7F808B01960CBF80420DFF8A49014
:104D300016D0B8F10F0F40F2FD806268A8F10C03A5
:104D400023F0070302F00102E0184FF0050E1A43AA
:104D50000F2B6260C0F804E0C0F808E000F21C818C
:104D60001D4BBC681A68914288BF19601B4B1A68BA
:104D70009142626888BF196022F003029542A2EB5B
:104D8000050301D80F2B04DC304600F0E9F90024BC
:104D900045E745F0010243F00103254462603046D7
:104DA000BD6008346B6000F0DBF9204603B0BDE85D
:104DB000F08F142B71D9542B00F2A480280B00F132
:104DC0006F0E4FEA4E016E3082E600BF9C04002059
:104DD000C0080020C4080020BC080020B80800203B
:104DE000A80800205A0A042A5ED9142A00F2B380C7
:104DF00002F15C0149005B3207EB810C57F821108E
:104E0000ACF1080C8C45DFF8D88100F088804A6846
:104E100022F00302934202D289688C45F7D1D1F87F
:104E20000CC07A68C4F80CC0A160CCF80840CC6013
:104E300096E645F0010742F00103254467603046DD
:104E40004D610D61C5F80CE0C5F808E06B60AA5033
:104E5000083400F085F9E2E64A6881E608F10108C5
:104E600018F0030F0CF1080C7FF48CAE30E0DC6816
:104E7000A34208BF02303FF440AEC0E60C460B44EC
:104E80005A68C96854F8085F42F001025A60304617
:104E9000E9608D6000F064F9C1E603F15C0E03F196
:104EA0005B004FEA4E0113E69A0902F1390149000D
:104EB0003832A1E7BC424A4B3FF400AF9C686268BD
:104EC00022F003025AE759F80839994540F08280E8
:104ED00010F0030F00F1FF30F5D17B6823EA0403E3
:104EE0007B6064009C423FF6BDAE002C3FF4BAAE3E
:104EF0001C4240467FF442AE64001C4200F10400B4
:104F0000FAD03BE6B3F5AA7F18D8E80B00F1780E8B
:104F10004FEA4E017730DBE54FF48051EBE601219B
:104F2000D8F80430921001FA02F21A43C8F80420AB
:104F3000614677E70123CBF8043025E740F254526D
:104F4000934220D8A80C00F17D0E4FEA4E017C3030
:104F5000BEE51032A4E6542A26D81A0B02F16F01DE
:104F600049006E3248E7BC68626822F0030205E738
:104F7000CAF30B0000287FF4A8AE4244BB6842F09D
:104F800001025A60ECE6FE214FF07F0E7E209FE585
:104F900001224FF00009C1E604F10801304600F09B
:104FA0005FFDD9F80010DBE6B2F5AA7F05D8DA0B71
:104FB00002F17801490077321EE740F254518A42EB
:104FC00005D89A0C02F17D0149007C3214E7FE21DC
:104FD0007E2211E77B6884E7E808431C5B0005E656
:104FE0009C040020830770B4CDB23DD0531E02B3A1
:104FF0000278AA421ED0421C04E0D3B10478013BDF
:10500000AC4217D012F0030F104602F10102F4D1A6
:10501000032B11D853B30278AA420BD00344421C8D
:1050200002E00178A94205D09342104602F1010244
:10503000F7D1002070BC704704460E0206F47F468C
:105040002E4346EA0646226820467240A2F101310C
:1050500021EA020212F0803F04F10404DBD1043B98
:10506000032B2046EFD8D5E71346D1E71846E1E7F2
:10507000844641EA000313F0030349D1403A23D3A5
:105080000B6803604B6843608B688360CB68C360C8
:105090000B6903614B6943618B698361CB69C361B0
:1050A0000B6A03624B6A43628B6A8362CB6AC36298
:1050B0000B6B03634B6B43638B6B8363CB6BC36380
:1050C00040304031403ADBD230320BD30B680360C2
:1050D0004B6843608B688360CB68C36010301031CD
:1050E000103AF3D20C3205D351F8043B40F8043B9C
:1050F000043AF9D2043208D0D2071CBF11F8013BA0
:1051000000F8013B01D30B8803806046704700BF65
:10511000082A13D38B07B1D010F00303AED0C3F12C
:105120000403D21ADB071CBF11F8013B00F8013B56
:10513000A4D331F8023B20F8023B9FE7043AD9D3CD
:10514000013A11F8013B00F8013BF9D20B780370EA
:105150004B7843708B78837060467047704700BF10
:10516000704700BFC26C70B505460C4652B152F88C
:1051700024308BB1196842F82410002218461A61B5
:10518000DA6070BD2122042100F0ECFBE8640246E5
:105190000028ECD1002070BD012101FA04F6721D37
:1051A0002846920000F0DEFB03460028F2D044605F
:1051B0008660E2E731B1C36C4A6853F822000860A8
:1051C00043F82210704700BFF0B50C4605460E6943
:1051D00083B001F1140E0027DEF80000013781B220
:1051E00002FB0131000C0B0C02FB003389B201EB16
:1051F0000341BE424EF8041B4FEA1343ECDC3BB1C3
:10520000A268964207DA04EB8602013653612661F2
:10521000204603B0F0BD6168284601310193FFF7D5
:10522000A1FF0746226904F10C01023292000C3002
:10523000FFF71EFFEA6C6168019B52F821002060B5
:1052400042F821403C46DEE7030C1B04B3B90004DE
:10525000102310F07F4F04BF0002083310F0704F8E
:1052600004BF0001043310F0404F04BF800002333C
:10527000002807DB420003D4202070470023E8E722
:10528000581C704718467047036813F0070207D090
:10529000D90720D49A0720D49B08036002207047C6
:1052A00099B209B91B0C102213F0FF0F04BF1B0A9F
:1052B0000832190704BF1B090432990704BF9B0871
:1052C0000232D90704D45B0801D120207047013293
:1052D000036010467047002070475B0803600120A0
:1052E000704700BF10B50C460121FFF73BFF0122BC
:1052F0004461026110BD00BF2DE9F04F0D691669D0
:1053000085B0B5420C46914604DA2A464C463546ED
:1053100089461646A36805EB060861689845C8BF2C
:105320000131FFF71FFF00F1140A0AEB880BDA4581
:10533000019005D25346002143F8041B9B45FBD83E
:1053400009F1140909EB860304F11402994502EBF3
:10535000850C59D2CDF808B0CDF80C809B4690460C
:1053600059F8047B1FFA87FEBEF1000F1FD0474695
:105370005646002100E00646304657F8045B346884
:10538000ABB2A2B20EFB03222D0C240C0EFB054483
:10539000531804EB13419AB242EA0142BC454FEA6A
:1053A000114140F8042BE6D8716059F8047C3F0C99
:1053B00022D0DAF80030002255461E464046964676
:1053C00000E025462C460288360C07FB026699B29F
:1053D00006EB0E0241EA024344F8043B50F8041B7A
:1053E0006E68090CB3B207FB0131844501EB12432F
:1053F0004FEA134EE5D86B60CB450AF1040AAFD8EB
:10540000DDF808B0DDF80C80B8F1000F0BDD5BF8BB
:10541000043CABF1040B1BB105E05BF8043D13B990
:10542000B8F10108F9D10198C0F8108005B0BDE8C5
:10543000F08F00BF12F003032DE9F0411446074638
:105440002ED10E46A4101CD0BD6C95B3E3074FF0CF
:10545000000806D4641014D02868A8B10546E307F4
:10546000F8D52A4631463846FFF746FFB6B172688E
:10547000FB6C641053F82210316043F8226006463A
:10548000EAD13046BDE8F0812A4629463846FFF782
:1054900033FF2860C0F800800546E0E70646D9E7FC
:1054A0000B4A013B52F823200023FFF78DFE0646EE
:1054B000C8E701213846FFF755FE40F2712101226D
:1054C0000023416102610546B8640360BEE700BF86
:1054D000B47300082DE9F84F0B69541104EB03086D
:1054E0008B6808F101059D420E4691468346496846
:1054F00004DD5B009D4201F10101FADC5846FFF733
:1055000031FE002C00F1140237DD02EB8403002190
:1055100042F8041B9342FBD1346906F1140119F0DF
:105520001F0901EB840E20D0C9F1200C00240F6864
:105530001A4607FA09FA4AEA040443F8044B51F8F8
:10554000044B8E4524FA0CF4F1D854600CB108F1E8
:105550000205DBF84C307268013D53F822100561FA
:10556000316043F82260BDE8F88F043B51F8042B0A
:105570008E4543F8042FF9D8EBE71346CCE700BF7C
:1055800002690B69D21A12D19B00143014311944EC
:1055900010B4034401E098420BD253F8044D51F883
:1055A000042D9442F7D007D3012010BC7047104659
:1055B0007047002010BC70474FF0FF30F5E700BF88
:1055C0002DE9F0470B690C46116990465B1A002BD8
:1055D00018D1890004F1140602F114077318394434
:1055E00001E09E4269D253F8045D51F8042D9542C2
:1055F000F7D06BD22346B24644463E4698464FF01B
:10560000010906E066DB04F1140602F1140A4FF00A
:1056100000096168FFF7A6FD5546D4F810E0D8F8F8
:1056200010303746C0F80C900AEB830C06EB8E0660
:1056300000F114044FF0000957F8042B55F8041B2F
:105640001FFA82F808EB09031FFA81F8090CC8EB6E
:105650000303C1EB124202EB23429BB243EA024333
:10566000AC4544F8043B4FEA2249E5D8BE4218D97C
:10567000A046BC465CF8042B95B205EB09010B145F
:1056800003EB12428BB243EA0243664548F8043BFF
:105690004FEA2249EED8FF43374427F00307043787
:1056A0003C44043C2BB954F8043D0EF1FF3E002B62
:1056B000F9D0C0F810E0BDE8F0870021FFF752FDF7
:1056C0000122002302614361BDE8F087BA464FF032
:1056D00000099EE7234604F1140A08F11406444623
:1056E0004FF00109984694E7F0B5012183B01C46BC
:1056F000C3F30A551646FFF735FDC4F313040746F6
:105700000DB144F48014019406B302A840F8086D6A
:10571000FFF7BAFD002830D19DE80C007A61002B1C
:105720000CBF01210221BB613961D5B9089A07EB91
:105730008103A0F2324010601869FFF785FD099BD4
:10574000C0EB41101860384603B0F0BD01A8FFF768
:105750009BFD019B0122114620303A617B61002DA7
:10576000E4D0A5F23343089A03441360099BC0F1C7
:1057700035001860384603B0F0BD019BC0F1200130
:10578000009A03FA01F10A43C34001937A61C6E724
:1057900031F0004310B407D0104AA1F580149442B0
:1057A00006D8042010BC704710B9022010BC704706
:1057B00001F1FF41094A01F5E0019142F1D9B3F548
:1057C000801F01D20320EDE7054A934201D000205B
:1057D000E8E7B0FA80F04009E4E700BFFFFFDF7FB1
:1057E0000000F07F38B5074C0023054608462360CB
:1057F000FCF736F9431C00D038BD2368002BFBD0E2
:105800002B6038BD2819002020F0030110F00300A0
:10581000C0F1000051F8043B00F1040C4FEACC0C3D
:105820006FF000021CBF22FA0CF213434FF0010C80
:105830004CEA0C2C4CEA0C4CA3EB0C0222EA0302BF
:1058400012EACC1204BF51F8043B0430F4D0C2F188
:10585000000102EA0102B2FA82F2C2F11F0200EB79
:10586000D20070472DE9F04F936883B09046002B2B
:1058700072D04FF000090D464C4683461668086802
:105880008B68002C45D09C421F469A4646D3AB8974
:1058900013F4906F2DD06F69296907EB4707C1EBAF
:1058A000000A07EBD777601C7F105044B8423A4695
:1058B00084BF07463A465B0533D511465846FFF785
:1058C000E5F8002837D0524629690190FFF7D0FB50
:1058D000AA89019B22F4906242F08002AA81CAEB5D
:1058E000070203EB0A006F61A24627462B6128607E
:1058F000AA605246494600F09BF9D8F80820AB68E8
:105900002868DB1B5044141BAB602860C8F80840B3
:1059100014B3D6F8009074680836B2E72746A2465A
:10592000E7E7584600F036FA03460028D7D1296940
:10593000584600F095F80C23CBF80030AB890022D4
:1059400043F040034FF0FF30AB81C8F80820C8F89F
:10595000042003B0BDE8F08F0020C8F8040003B0B5
:10596000BDE8F08F10B502FB01F1FFF78FF8044698
:10597000D8B150F8042C22F00302043A242A18D893
:10598000132A14D900231B2A0360436016D9242A42
:105990008360C36011BF00F110020361436100F135
:1059A00018020023136053609360204610BD024626
:1059B000F7E7002100F0A0F9204610BD00F1080231
:1059C000EFE700BFF8B50C46224F0646FFF7C6FBCF
:1059D000BB685D6825F00305291B01F6EF7121F412
:1059E0007F6121F00F01A1F58054B4F5805F07DBE2
:1059F00000213046FFF7F6FEBB682B44984204D0E6
:105A00003046FFF7ADFB0020F8BD61423046FFF79E
:105A1000E9FE01300DD0104BBA6819682D1B45F016
:105A200001053046091B55601960FFF799FB0120FD
:105A3000F8BD00213046FFF7D5FEBA68831A0F2B58
:105A4000DEDD064C0449246843F00103001B53606B
:105A50000860D5E79C040020C4080020A8080020A6
:105A6000002945D02DE9F0410D468046FFF776FB31
:105A700055F8047C6A49A5F1080427F00103E218EF
:105A80008E685068B24220F0030062D0FE0750607A
:105A90000BD455F8087C01F1080EE41BA5683B44C3
:105AA00075456FD0E768EF60BD6015186D68ED074C
:105AB00042D543F001026260E350B3F5007F18D293
:105AC000DB0848689D100122013351F8337002FA57
:105AD00005F501EBC3022843083AE260A76048607D
