:020000040800F2
:1000000000A0002001300008052500081125000887
:1000100019250008212500082925000800000000F6
:100020000000000000000000000000003125000872
:100030003D2500080000000049250008552500085E
:1000400045300008453000084530000845300008BC
:1000500045300008453000084530000845300008AC
:10006000453000084530000845300008453000089C
:10007000453000084530000845300008453000088C
:10008000453000084530000845300008453000087C
:100090007525000845300008453000084530000847
:1000A000453000084530000845300008453000085C
:1000B000453000084530000845300008453000084C
:1000C000453000084530000845300008453000083C
:1000D000453000084530000845300008453000082C
:1000E00045300008453000088125000845300008EB
:1000F000453000084530000845300008453000080C
:100100000000000000000000000000004530000872
:1001100045300008453000084530000845300008EB
:1001200045300008453000084530000845300008DB
:1001300045300008453000080000000000000000C5
:100140004530000845300008453000080000000038
:10015000000000000000000000000000000000009F
:100160000000000000000000453000084530000895
:100170004530000800000000000000000000000002
:10018000000000004530000880B582B000AF034693
:10019000FB80FB88002B05D1084B1B6801221A82CB
:1001A000002306E0064B1B681B689847034B1B683F
:1001B0000A3318460837BD4680BD00BF7C010020C9
:1001C0007801002080B500AF0F4B1B68DA780F4B29
:1001D0005B789A4215D80C4B1B689B78002B10D18A
:1001E000094B1B689B88002B0BD1074B1B68064AE9
:1001F0001268D2789A72064B1B685B689847002396
:1002000000E00223184680BD7C0100204800002049
:100210007801002080B582B000AF0346FB80FB88E8
:10022000002B05D1084B1B6801221A82002306E02F
:10023000064B1B689B689847034B1B680C3318469A
:100240000837BD4680BD00BF7C010020780100203A
:1002500080B582B000AF1D4B1B689B691C4A1268B9
:1002600050791B4A1268D278114698470346FB71B1
:10027000174B1B689B7A002B23D0FB79002B09D1ED
:10028000134B1B681B79002B04D1114B1B689B7807
:10029000002B01D0022315E0FB79002B11D10D4B6F
:1002A0001B68DB6898470A4B1B68094A1268527939
:1002B000DA72074B1B68064A1268D2781A73002359
:1002C00000E0022318460837BD4680BD54010020D7
:1002D0007C0100207801002080B584B000AF034687
:1002E000FB80FB88002B05D1454B1B6802221A823C
:1002F000002380E0434B00221A80414B1B681B788F
:1003000003F07F03002B2CD13D4B1B685B7A7B7382
:100310007B7B03F02003002B07D03A4B1B7843F084
:100320000203DAB2374B1A7006E0364B1B7823F023
:100330000203DAB2334B1A707B7B03F04003002BCD
:1003400007D0304B1B7843F00103DAB22D4B1A7003
:100350004CE02C4B1B7823F00103DAB2294B1A70C6
:1003600044E0274B1B681B7803F07F03012B01D16E
:10037000244B40E0224B1B681B7803F07F03022BC9
:1003800032D11F4B1B685B79FB73FB7B03F00F03C0
:10039000BB73FB7B5BB2002B12DABB7B9B0003F1D0
:1003A000804303F5B8431B6803F03003102B1DD1C5
:1003B000144B1B7843F00103DAB2124B1A7015E0AC
:1003C000BB7B9B0003F1804303F5B8431B6803F438
:1003D0004053B3F5805F09D10A4B1B7843F001030A
:1003E000DAB2084B1A7001E0002304E0064B1B68E8
:1003F0001B699847034B18461037BD4680BD00BFA8
:100400007C010020340100207801002090B587B0E5
:1004100000AF6E4B1B681B7803F07F033B613B69A9
:10042000002B0AD1694B1B68684A1268527A22F085
:100430002002D2B25A720023C3E03B69022B40F083
:10044000BF80624B1B685B88002B04D15F4B1B682D
:100450001B79002B01D00223B3E05D4BFB605B4BAB
:100460001B685B79BB60BB6823F080037B607B68A3
:100470003B60564B1B685B79DBB25BB2002B0ADA40
:100480003B689B0003F1804303F5B8431B6803F00E
:1004900030037B6109E03B689B0003F1804303F577
:1004A000B8431B6803F440537B61FB681B781A4612
:1004B0007B689A4207D97B69002B04D0434B1B68A9
:1004C0009B7A002B01D102237BE0BB6803F0800301
:1004D000002B16D03B689B0003F1804303F5B84323
:1004E0001B6803F03003102B64D13B68DBB2184665
:1004F00001F0EAFB3B68DBB23021184601F0CCFA90
:1005000058E03B689B0003F1804303F5B8431B6848
:1005100003F44053B3F5805F4CD13B68002B27D1E7
:100520003B68DAB22B4B93F82C309BB2194610463D
:1005300001F088FC3B689B0003F1804303F5B8435E
:100540001B689BB223F4804323F070039CB284F4B5
:1005500080539CB284F400539CB23B689B0003F12F
:10056000804303F5B8431C4A224392B21A6021E04B
:100570003B68DBB2184601F07BFB3B689B0003F154
:10058000804303F5B8431B689BB223F4804323F0F8
:1005900070039CB284F480539CB284F400539CB2E8
:1005A0003B689B0003F1804303F5B8430A4A2243AA
:1005B00092B21A60094B1B685B699847002300E000
:1005C000022318461C37BD4690BD00BF7C010020A9
:1005D000480000204C0000208080FFFF78010020B0
:1005E00090B585B000AF3F4B1B685B79BB60BB68C3
:1005F00023F080037B607B683B603A4B1B685B7930
:10060000DBB25BB2002B0ADA3B689B0003F180434C
:1006100003F5B8431B6803F03003FB6009E03B6857
:100620009B0003F1804303F5B8431B6803F4405378
:10063000FB602D4B1B781A463B689A420CD9294B1C
:100640001B685B88002B07D1FB68002B04D0254B6F
:100650001B689B7A002B01D102233EE0BB6803F0AC
:100660008003002B1AD03B689B0003F1804303F505
:10067000B8431B689BB223F4E04323F040039CB2D1
:1006800084F010039CB23B689B0003F1804303F5A8
:10069000B843164A224392B21A6019E03B689B00A5
:1006A00003F1804303F5B8431B689BB223F48043F6
:1006B00023F070039CB284F480539CB23B689B008F
:1006C00003F1804303F5B843084A224392B21A600B
:1006D000074B1B689B699847002318461437BD4693
:1006E00090BD00BF7C010020480000208080FFFFFB
:1006F0007801002080B500AF074B1B68064A1268DE
:10070000527A42F02002D2B25A72044B1B68DB6963
:1007100098470023184680BD7C0100207801002006
:1007200080B485B000AF03463960FB800D4B1B6879
:100730005B8AFB60FB88002B0AD10A4B1B683A6876
:100740009188FA6892B28A1A92B21A82002303E060
:100750003B681A68FB68134418461437BD4680BCD2
:10076000704700BF7C01002080B584B000AF3A4BD9
:100770001B681033BB60BB681B887B60BB689B68D1
:10078000002B2DD07B68002B2AD0BB689B88FB6098
:10079000FA687B689A4201D97B68FB60BB689B68FA
:1007A000FA6892B2104698473860BB681A88FB68AE
:1007B0009BB2D31A9AB2BB681A80BB685A88FB688E
:1007C0009BB213449AB2BB685A80002001F002FB2E
:1007D00003461946FB689BB21A46386802F06EFC65
:1007E000BB681B88002B0AD01C4B4FF440521A8068
:1007F0000021002001F008FB194B30221A80BB6851
:100800001A88BB689B889A4204D3134B1B68032247
:100810001A721CE0BB681B88002B04D00E4B1B68AF
:1008200005221A7213E0BB681B88002B0FD10A4BFC
:100830001B6806221A720B4B1B689AB20A4B1344B0
:100840005B001A4600231360054B30221A8000BF5C
:100850001037BD4680BD00BF7C010020360100205E
:1008600038010020505C00400230002080B586B086
:1008700000AF3B4B1B681033FB60FB681B88BB6001
:10088000374B1B681B7A7B61BB68002B1ED17B69D1
:10089000042B1BD1334B1B78012B11D1324B1B681E
:1008A0009AB2324B13445B001A4600231360304B5C
:1008B00030221A8004237B612A4B00221A7045E003
:1008C00007237B612A4B10221A803FE0FB689B883C
:1008D0003B61BA683B699A4201D8042300E00223D5
:1008E0007B613A69BB689A4201D9BB683B61FB688E
:1008F0009B683A6992B2104698477860002001F0F0
:100900004FFA034619463B699BB21A46786802F0D3
:100910009BFB3B699BB21946002001F075FAFB680E
:100920001A883B699BB2D31A9AB2FB681A80FB689B
:100930005A883B699BB213449AB2FB685A800C4BAD
:1009400030221A800B4B4FF440521A80044B1B6824
:100950007A69D2B21A7200BF1837BD4680BD00BF97
:100960007C0100201C010020505C0040023000206F
:10097000380100203601002080B584B000AF02238A
:10098000FB735D4B1B685B787B605B4B1B681B7864
:1009900003F07F03002B57D17B68092B04D1FFF7AD
:1009A00011FC0346FB7377E07B68052B1BD1524B90
:1009B0001B68DB78DBB25BB2002B0EDB4E4B1B6897
:1009C0009B78002B09D14C4B1B689B88002B04D1D2
:1009D000494B1B689B7A002B02D00823BB6081E047
:1009E0000023FB7358E07B68032B11D1424B1B683B
:1009F000DB78012B09D1404B1B689B88002B04D16D
:100A0000FFF778FE0346FB7346E00223FB7343E0E7
:100A10007B68012B40D1384B1B68DB78012B10D150
:100A2000354B1B689B88002B0BD1334B1B685B7AC3
:100A300003F02003002B04D0FFF7E8FC0346FB7310
:100A40002AE00223FB7327E02B4B1B681B7803F083
:100A50007F03012B07D17B680B2B1DD1FFF7F8FB20
:100A60000346FB7318E0244B1B681B7803F07F03DD
:100A7000022B0FD17B68012B04D1FFF7C7FC034683
:100A8000FB7309E07B68032B06D1FFF7A9FD034642
:100A9000FB7301E00223FB73FB7B002B0ED0174B93
:100AA0001B685B697A68D2B2104698470346FB73AD
:100AB000FB7B032B02D10923BB6013E0FB7B002BE4
:100AC00002D00823BB600DE00623BB600C4B1B6803
:100AD0009AB20C4B13445B001A46002313600A4B76
:100AE00030221A80044B1B68BA68D2B21A7200BF57
:100AF0001037BD4680BD00BF7C010020540100209E
:100B0000505C0040023000203801002080B58AB0DF
:100B100000AF934B1B685B78BB6100237B620023B3
:100B20007B61BB69062B24D18D4B1B681B7803F0BE
:100B30007F03002B40F0D280894B1B689B78FB74AD
:100B4000FB7C012B04D1874B1B68DB697B62C5E012
:100B5000FB7C022B04D1834B1B681B6A7B62BDE0CC
:100B6000FB7C032B40F0BA807E4B1B685B6A7B6288
:100B7000B4E0BB69002B76D1794B1B685B88002BF6
:100B800071D1774B1B68DB88022B6CD1744B1B68CF
:100B90001B79002B67D1724B1B681B7803F07F0316
:100BA000002B07D16E4B1B689B88002B02D16E4B2C
:100BB0007B6292E06A4B1B681B7803F07F03012B7A
:100BC00013D1684B1B689B69654A126852790021F2
:100BD000104698470346002B7FD1614B1B689B7AD8
:100BE000002B7AD0604B7B6277E05D4B1B681B78F3
:100BF00003F07F03022B70D1594B1B685B7903F024
:100C00000F03FB60564B1B685B7903F07003BB60FE
:100C1000534B1B685B79DBB25BB2002B0ADAFB68D3
:100C20009B0003F1804303F5B8431B6803F03003D6
:100C3000FB6109E0FB689B0003F1804303F5B843C7
:100C40001B6803F44053FB61484B1B781A46FB6852
:100C50009A4242D9BB68002B3FD1FB69002B3CD0A4
:100C6000414B7B6239E0BB69082B09D13C4B1B68C7
:100C70001B7803F07F03002B30D13D4B7B622DE0CE
:100C8000BB690A2B2AD1364B1B681B7803F07F0304
:100C9000012B23D1324B1B689B7A002B1ED0304B8B
:100CA0001B685B88002B19D12D4B1B681B79002B0F
:100CB00014D12B4B1B68DB88012B0FD1294B1B68F0
:100CC0009B69274A126852790021104698470346CB
:100CD000002B03D1274B7B6200E000BF7B6A002B17
:100CE0000FD01F4B1B687A6992B25A821C4B1B684B
:100CF0007A6A9A617B6A00209847002387F823303C
:100D000013E0184B1B681B69154A1268527810468D
:100D10009847034687F8233097F82330032B04D1F4
:100D20000F4B1B6809221A7279E00D4B1B681B8A56
:100D30004FF6FF72934204D1094B1B6809221A72C5
:100D40006DE097F82330022B04D0054B1B681B8AFB
:100D5000002B11D1024B1B6808221A725FE000BF02
:100D60007C01002054010020D90200084800002026
:100D700089010008150200082A4B1B681B78DBB2AA
:100D80005BB2002B42DA274B1B68DB887B60254B6C
:100D90001B681B8A1A467B689A4205D9214B1B683F
:100DA0007A6892B21A8226E01E4B1B681A8A1D4B83
:100DB0001B68DB889A421ED21A4B1B681A8A1A4B90
:100DC0001B6893F82C309BB29A4203D2174B002237
:100DD0001A7010E0134B1B681B8A134A126892F8B2
:100DE0002C2093FBF2F102FB01F29B1A002B02D1A3
:100DF0000E4B01221A700B4B1B680B4A126892F8BB
:100E00002C2092B29A82FFF731FD08E0054B1B6857
:100E100003221A72064B4FF440521A8000BF283743
:100E2000BD4680BD7C010020540100201C01002033
:100E30003601002090B583B000AF0123FB80304B1A
:100E40001B689AB22F4B13445B001B689BB25B007C
:100E500003F1804303F5C0433B602B4B1B681B7AB7
:100E6000092B37D0284B1A683B68591C39601B780E
:100E70001370254B1A683B68591C39601B785370F6
:100E80003A68FB885B0013443B601F4B1C683B685F
:100E90009A1C3A601B88184601F016F803466380D6
:100EA0003A68FB885B0013443B60174B1C683B6847
:100EB0009A1C3A601B88184601F006F80346A38086
:100EC0003A68FB885B0013443B600F4B1B683A6831
:100ED0001288DA800C4B1B6801221A720A4B1B68BD
:100EE000DB88002B02D1FFF747FD01E0FFF70EFE84
:100EF00000F08EF8034618460C37BD4690BD00BF83
:100F0000505C0040043000207C01002080B582B09D
:100F100000AF1F4B1B681B7A7B607B68022B02D0E3
:100F20007B68042B06D1FFF7A1FC194B1B681B7AC9
:100F30007B6021E07B68062B1CD1154B1B685B781E
:100F4000052B10D1124B1B681B7803F07F03002B7D
:100F500009D10F4B1B68DB78184600F081F80D4B68
:100F60001B681B6A98470C4B1B689B6898470823B3
:100F70007B6001E008237B60054B1B687A68D2B276
:100F80001A7200F045F8034618460837BD4680BD82
:100F90007C010020780100205401002080B582B03F
:100FA00000AF194B1B681B7A7B607B68022B02D059
:100FB0007B68042B02D108237B6018E07B68032B3D
:100FC00002D07B68052B06D1FFF7CEFB0E4B1B68CA
:100FD0001B7A7B600BE07B68072B06D10B4B1B68F1
:100FE000DB68984708237B6001E008237B60064BA1
:100FF0001B687A68D2B21A7200F00AF803461846E3
:101000000837BD4680BD00BF7C0100205401002090
:1010100080B500AF0E4B93F82C309BB219460020E0
:1010200000F010FF0B4B1B681B7A082B06D10A4BF4
:101030004FF480521A80094B10221A80054B1B680E
:101040001B7A092B0CBF01230023DBB2184680BD9D
:101050004C0000207C0100203601002038010020D7
:1010600080B485B000AF0346FB71194B1B78BB60A1
:101070000023FB601DE0FB68DBB29B0003F18043B3
:1010800003F5B843FA68D2B2920002F1804202F549
:10109000B8421268114640F60F720A4042F400420C
:1010A00042F08002F968C9B20A431A60FB68013352
:1010B000FB60FA68BB689A42DDD3064AFB7963F0AD
:1010C0007F03DBB2136000BF1437BD4680BC70479E
:1010D000480000204C5C004080B400AF00BFBD461B
:1010E00080BC704780B483B000AF0346FB71054BF2
:1010F00000221A70034AFB79137000BF0C37BD46FB
:1011000080BC70470210024080B582B000AF00235F
:101110003B600023FB710023BB71112000F0C8FA73
:101120000346BB713B6801333B603B68B3F5A06F7E
:1011300002D0BB79002BF0D0112000F0B9FA0346A1
:10114000002B02D00123FB7101E00023FB71FB792E
:1011500018460837BD4680BD80B483B000AF034653
:10116000FB71044AFB79136000BF0C37BD4680BC9D
:10117000704700BF6000424280B485B000AF786025
:101180000023FB60094B5B68FB60FB6823F00303F3
:10119000FB60FA687B681343FB60044AFB6853609A
:1011A00000BF1437BD4680BC704700BF001002402E
:1011B00080B400AF044B5B68DBB203F00C03DBB21E
:1011C0001846BD4680BC70470010024080B48BB00A
:1011D00000AF786000233B620023FB610023BB610A
:1011E00000237B6100233B6100237B620023FB60C3
:1011F0000023BB60924B5B6803F00C033B623B6ACD
:10120000042B07D0082B09D0002B30D17B688D4AE6
:101210001A6030E07B688B4A1A602CE0884B5B6870
:1012200003F47013FB61864B5B6803F48033BB618E
:10123000FB699B0C0233FB61BB69002B05D1FB6989
:10124000814A02FB03F37B620DE07D4BDB6A03F016
:101250000F0301337B617B4A7B69B2FBF3F3FA69CD
:1012600002FB03F37B627B687A6A1A6003E07B68A7
:10127000744A1A6000BF724B5B6803F0F0033B6274
:101280003B6A1B093B62714A3B6A13441B78DBB221
:10129000BB607B681A68BB68DA407B685A60684B41
:1012A0005B6803F4E0633B623B6A1B0A3B62674A8C
:1012B0003B6A13441B78DBB23B617B685A683B692D
:1012C000DA407B689A605E4B5B6803F460533B6274
:1012D0003B6ADB0A3B625D4A3B6A13441B78DBB224
:1012E000FB607B685A68FB68DA407B68DA60544BC5
:1012F000DB6A03F4F8733B623B6A1B093B62544AA6
:101300003B6A32F813309BB23B613B6903F0100338
:10131000002B06D07A6A3B69B2FBF3F27B681A6154
:1013200003E07B681A687B681A61454BDB6A03F44B
:1013300078533B623B6A5B0A3B62454A3B6A32F840
:1013400013309BB23B613B6903F01003002B06D0C6
:101350007A6A3B69B2FBF3F27B685A6103E07B680F
:101360001A687B685A61364B1B6B03F01003002B25
:1013700003D17B68334A9A6103E07B681A687B6813
:101380009A612F4B1B6B03F02003002B03D17B686A
:101390002C4ADA6103E07B681A687B68DA61284BC3
:1013A0001B6B03F48073002B0DD07B681A687B6A7B
:1013B0009A4208D1FA68BB689A4204D17B6A5A0003
:1013C0007B681A6203E07B68DA687B681A621C4BF0
:1013D0001B6B03F40073002B0DD07B681A687B6ACB
:1013E0009A4208D1FA68BB689A4204D17B6A5A00D3
:1013F0007B685A6203E07B68DA687B685A62104B4C
:101400001B6B03F00303002B04D17B68DA687B6855
:101410009A6228E00A4B1B6B03F00303012B04D1F3
:101420007B681A687B689A621DE0054B1B6B03F0B2
:101430000303022B0ED17B684FF400429A6212E044
:101440000010024000127A0000093D000000002058
:1014500010000020604B1B6B03F00303032B02D131
:101460007B685E4A9A625C4B1B6B03F44033002B33
:1014700004D17B689A687B68DA6221E0564B1B6B6B
:1014800003F44033B3F5803F04D17B681A687B686E
:10149000DA6215E0504B1B6B03F44033B3F5003FA9
:1014A00004D17B684FF40042DA6209E04A4B1B6BBF
:1014B00003F44033B3F5403F02D17B68474ADA6218
:1014C000454B1B6B03F44023002B04D17B689A68C7
:1014D0007B681A6321E0404B1B6B03F44023B3F598
:1014E000802F04D17B681A687B681A6315E03A4B39
:1014F0001B6B03F44023B3F5002F04D17B684FF43A
:1015000000421A6309E0344B1B6B03F44023B3F52C
:10151000402F02D17B68314A1A632F4B1B6B03F4B7
:101520004013002B04D17B689A687B685A6321E0E2
:10153000294B1B6B03F44013B3F5801F04D17B6868
:101540001A687B685A6315E0234B1B6B03F4401346
:10155000B3F5001F04D17B684FF400425A6309E0E1
:101560001D4B1B6B03F44013B3F5401F02D17B6886
:101570001A4A5A63184B1B6B03F44003002B04D127
:101580007B689A687B689A6321E0134B1B6B03F4BA
:101590004003B3F5800F04D17B681A687B689A63B7
:1015A00015E00D4B1B6B03F44003B3F5000F04D1A2
:1015B0007B684FF400429A6309E0074B1B6B03F40E
:1015C0004003B3F5400F02D17B68044A9A6300BF21
:1015D0002C37BD4680BC70470010024000127A00D4
:1015E00080B483B000AF7860034A7B68136000BFAB
:1015F0000C37BD4680BC7047D800424280B483B0EF
:1016000000AF78600B46FB70FB78002B06D00949D1
:10161000084B5A697B6813434B6106E00549054B4B
:101620005A697B68DB4313404B6100BF0C37BD46F2
:1016300080BC70470010024080B483B000AF786077
:101640000B46FB70FB78002B06D00949084B9A69C2
:101650007B6813438B6106E00549054B9A697B68FB
:10166000DB4313408B6100BF0C37BD4680BC704725
:101670000010024080B483B000AF78600B46FB706E
:10168000FB78002B06D00949084BDA697B681343C5
:10169000CB6106E00549054BDA697B68DB43134003
:1016A000CB6100BF0C37BD4680BC704700100240C4
:1016B00080B487B000AF0346FB710023FB600023BA
:1016C0007B610023FB74FB795B09DBB2FB60FB6889
:1016D000002B03D1154B1B687B6110E0FB68012BCD
:1016E00003D1124B1B6A7B6109E0FB68042B03D119
:1016F0000E4B5B687B6102E00C4B5B6A7B61FB79A4
:1017000003F01F03FB607A69FB6822FA03F303F01E
:101710000103002B02D00123FB7401E00023FB74C2
:10172000FB7C18461C37BD4680BC70470010024049
:1017300090B583B000AF0023FB805DE1844B1B8834
:101740009BB2DBB203F00F03DAB2824B1A70814B0B
:101750001B78002B40F006817F4B1B689AB27F4BB1
:101760001A807E4B1B889BB203F030039AB27C4BED
:101770001A807A4B1B889BB203F440539AB2774B82
:101780001A80754B1B684BF6BF741C4084F40054E0
:1017900084F02004704A23469BB243F4004343F094
:1017A000800313606A4B1B889BB203F01003002B6D
:1017B0003ED16949684B1A6848F60F7313400B60B5
:1017C000FFF7A4FB644B1B684BF6BF741C40634BD4
:1017D0001B889BB203F480539BB2002B01D084F48E
:1017E00080545E4B1B889BB203F400539BB2002BCA
:1017F00001D084F400545A4B1B889BB203F01003B1
:101800009BB2002B01D084F01004554B1B889BB277
:1018100003F020039BB2002B01D084F020044E4A39
:1018200023469BB243F4004343F080031360EEE091
:10183000494B1B689BB2FB80FB889BB203F400639F
:10184000002B3ED04449444B1A6840F68F73134036
:101850000B60FFF7EFFA404B1B684BF6BF741C4060
:101860003E4B1B889BB203F480539BB2002B01D0EC
:1018700084F48054394B1B889BB203F400539BB211
:10188000002B01D084F40054354B1B889BB203F02D
:1018900010039BB2002B01D084F01004304B1B8846
:1018A0009BB203F020039BB2002B01D084F02004F4
:1018B000294A23469BB243F4004343F0800313605C
:1018C000A5E0FB889BB29BB21BB2002B80F29480F8
:1018D0002149214B1A6840F68F7313400B60FFF7C4
:1018E0005DFB1D4B1B684BF6BF741C401B4B1B88DC
:1018F0009BB203F480539BB2002B01D084F480543C
:10190000164B1B889BB203F400539BB2002B01D0F3
:1019100084F40054124B1B889BB203F010039BB25B
:10192000002B01D084F010040D4B1B889BB203F0F8
:1019300020039BB2002B01D084F02004064A2346EA
:101940009BB243F4004343F0800313605FE000BFA9
:10195000C401002058010020005C00403601002036
:10196000380100202B4B1B789B0003F1804303F5CB
:10197000B8431B689BB2FB80FB889BB29BB21BB237
:10198000002B19DA234B1B789B0003F1804303F5EE
:10199000B843204A1278920002F1804202F5B84220
:1019A000116840F68F720A401A601A4B1B78013B8F
:1019B000194A52F823309847FB889BB203F0800302
:1019C000002B19D0134B1B789B0003F1804303F5C8
:1019D000B843104A1278920002F1804202F5B842F0
:1019E000116848F60F720A401A600A4B1B78013BD7
:1019F0000A4A52F823309847094B1B689AB2094BA0
:101A00001146198093B21BB2002BFFF697AE0C372C
:101A1000BD4690BD5801002000010020E4000020D8
:101A2000445C0040C401002080B483B000AF034692
:101A3000FB800549FA884FF6F87313400B6000BF2E
:101A40000C37BD4680BC7047505C004080B483B00A
:101A500000AF03460A46FB711346BB80FB799B002F
:101A600003F1804303F5B843FA79920002F1804212
:101A700002F5B842126892B222F4EC4222F07002EF
:101A800091B2BA880A4392B292B21A6000BF0C3780
:101A9000BD4680BC704700BF90B482B000AF034623
:101AA0000A46FB711346BB80FB799B0003F1804320
:101AB00003F5B8431B689BB223F4E04323F04003D3
:101AC0009CB2BB8803F010039BB2002B02D084F0C1
:101AD00010039CB2BB8803F020039BB2002B02D002
:101AE00084F020039CB2FB799B0003F1804303F553
:101AF000B843044A224392B21A6000BF0837BD4679
:101B000090BC70478080FFFF90B482B000AF034666
:101B10000A46FB711346BB80FB799B0003F18043AF
:101B200003F5B8431B689BB223F4804323F0700392
:101B30009CB2BB8803F480539BB2002B02D084F488
:101B400080539CB2BB8803F400539BB2002B02D09D
:101B500084F400539CB2FB799B0003F1804303F5AE
:101B6000B843044A224392B21A6000BF0837BD4608
:101B700090BC70478080FFFF90B482B000AF0346F6
:101B8000FB71FB799B0003F1804303F5B8431B68AD
:101B90009BB223F4E04323F040039CB284F0100393
:101BA0009CB284F020039CB2FB799B0003F180433C
:101BB00003F5B843044A224392B21A6000BF0837C3
:101BC000BD4690BC704700BF8080FFFF90B482B0DC
:101BD00000AF0346FB71FB799B0003F1804303F5E3
:101BE000B8431B689BB223F4804323F070039CB27C
:101BF00084F480539CB284F400539CB2FB799B0024
:101C000003F1804303F5B843044A224392B21A60B9
:101C100000BF0837BD4690BC704700BF8080FFFF03
:101C200080B483B000AF0346FB71FB799B0003F1E6
:101C3000804202F5B842FB799B0003F1804303F533
:101C4000B8431B689BB223F4F8731B051B0D9BB2B2
:101C500043F07F4343F47F0343F4004343F08003A6
:101C60009BB29BB2136000BF0C37BD4680BC70476F
:101C700080B483B000AF0346FB71FB799B0003F196
:101C8000804303F5B8431B6803F48043002B15D051
:101C9000FB799B0003F1804303F5B843FA79920086
:101CA00002F1804202F5B8421268114640F60F7206
:101CB0000A4042F4404242F080021A6000BF0C37F2
:101CC000BD4680BC704700BF80B483B000AF034600
:101CD000FB71FB799B0003F1804303F5B8431B685C
:101CE00003F04003002B15D0FB799B0003F18043E8
:101CF00003F5B843FA79920002F1804202F5B84246
:101D00001268114640F60F720A4042F4004242F057
:101D1000C0021A6000BF0C37BD4680BC704700BFD0
:101D200080B483B000AF03460A46FB711346BB8004
:101D30000A4B1B689AB2FB79DB00134403F1005392
:101D400003F540535B001A46BB885B089BB25B00FF
:101D5000136000BF0C37BD4680BC7047505C00402C
:101D600080B483B000AF03460A46FB711346BB80C4
:101D7000094B1B689AB2FB79DB001A44074B1344EA
:101D80005B001A46BB885B089BB25B00136000BF18
:101D90000C37BD4680BC7047505C004004300020CA
:101DA00080B483B000AF0346FB71094B1B689AB245
:101DB000FB79DB00134403F1005303F540535B0050
:101DC0001B689BB218460C37BD4680BC704700BFED
:101DD000505C004080B483B000AF0346FB71084BF9
:101DE0001B689AB2FB79DB001A44064B13445B0074
:101DF0001B689BB218460C37BD4680BC704700BFBD
:101E0000505C00400430002080B483B000AF034633
:101E10000A46FB711346BB80084B1B689AB2FB79DC
:101E2000DB001A44064B13445B001A46BB88136060
:101E300000BF0C37BD4680BC704700BF505C0040FF
:101E40000230002080B485B000AF03460A46FB7123
:101E50001346BB801A4B1B689AB2FB79DB001A440D
:101E6000184B13445B00BB60BB883E2B12D9BB8868
:101E70005B09FB81BB8803F01F03002B02D1FB89A8
:101E8000013BFB81FB899B0243F400431A46BB687C
:101E90001A600FE0BB885B08FB81BB8803F001037D
:101EA000002B02D0FB890133FB81FB899B021A4680
:101EB000BB681A6000BF1437BD4680BC704700BFC6
:101EC000505C00400630002080B485B000AF03466F
:101ED000FB80FB88FB73FB881B0A9BB29AB2FB7BDF
:101EE0001B029BB213439BB2BB81BB8918461437BC
:101EF000BD4680BC704700BF80B582B000AF0121F5
:101F00004FF08050FFF7B6FB01210120FFF794FB53
:101F100001214FF40010FFF771FB01214FF4003055
:101F2000FFF76CFB4FF4C0533B6003237B7102232C
:101F30003B710023BB710023FB713B4619464FF0F8
:101F4000904000F027FB0E220B214FF0904000F054
:101F5000D3FB0E220C214FF0904000F0CDFB12205D
:101F600000F0C6FE0A4B12221A60094B00221A71B9
:101F7000074B08225A71064B01229A71044800F05F
:101F8000BDFD002000F0B4FE00BF0837BD4680BD97
:101F90004001002080B500AF0020FFF721FB0121A8
:101FA0004FF40000FFF766FB00BF80BD80B500AFB7
:101FB000034B03221A60002000F09AFE00BF80BD90
:101FC0002001002080B582B000AF1A4B7B60012059
:101FD000FFF788F8FFF798F803461A46164B1A7071
:101FE00000BF1120FFF764FB0346002BF9D001204E
:101FF000FFF7B2F800BF1920FFF75AFB0346002B8A
:10200000F9D00220FFF7B8F800BFFFF7D1F8034678
:10201000082BFAD17B689B7A002B03D0074B052253
:102020001A6002E0054B01221A6000BF0837BD4666
:1020300080BD00BF5C0100203C0100202001002089
:1020400080B582B000AF4FF4A06000F059FF1423B8
:102050003B7102237B710023BB710123FB713B1D8C
:10206000184600F05FFF2A233B7101237B71012397
:10207000FB713B1D184600F055FF06233B71002302
:102080007B713B1D184600F04DFF00BF0837BD4671
:1020900080BD00BF80B582B000AF0346FB71FB7905
:1020A000002B05D04FF48041064800F017FB04E0F8
:1020B0004FF48041034800F003FB00BF0837BD46E2
:1020C00080BD00BF0010004880B584B000AF0F4B4A
:1020D0001B68FB600E4B1B68BB600E4B1B687B6074
:1020E000FA687B681344FB60FB68002B09D0082268
:1020F0000949F86800F014F804220849B86800F0AB
:102100000FF800BF1037BD4680BD00BFE8F7FF1FC6
:10211000ECF7FF1FF0F7FF1F2E0000203E0000200D
:1021200080B487B000AFF860B9601346FB7100233C
:10213000FB750023FB7527E0FB681B0F092B0BD8F1
:10214000FB7D5B001A46BB681344FA68120FD2B2DB
:102150003032D2B21A700AE0FB7D5B001A46BB68CF
:102160001344FA68120FD2B23732D2B21A70FB6837
:102170001B01FB60FB7D5B000133BA681344002246
:102180001A70FB7D0133FB75FA7DFB799A42D3D33C
:1021900000BF1C37BD4680BC704700BF80B500AF94
:1021A000FFF792FF064B1B6800229A7200F0ECFAD0
:1021B00000F0B6FD034B00221A6000BF80BD00BFD7
:1021C0007C0100202001002080B500AF264B1B6859
:1021D00000229A72244B1B680022DA72224B1B6881
:1021E000224AD2795A720020FFF71EFC4FF4007188
:1021F0000020FFF72BFC10210020FFF74DFC1821D9
:102200000020FFF7ADFD58210020FFF789FD0020D9
:10221000FFF706FD164B93F82C309BB219460020B1
:10222000FFF710FE0020FFF7D1FC4FF4C061012042
:10223000FFF70CFC4FF480710120FFF771FD0421C2
:102240000120FFF7E1FD00210120FFF75DFC2021C7
:102250000120FFF721FC0020FEF702FF054B0122C1
:102260001A6000BF80BD00BF7C0100204C32000816
:102270004C0000202001002080B483B000AF074B49
:102280007B607B689B7A002B02D0054B05221A608D
:1022900000BF0C37BD4680BC704700BF5C0100200A
:1022A0002001002080B400AF034B04221A6000BF5D
:1022B000BD4680BC704700BF2001002080B400AF45
:1022C00000BFBD4680BC704780B400AF00BFBD46B4
:1022D00080BC704780B584B000AF0346FB7100231B
:1022E000FB60FB79062B1BD11F4B1B681B7803F08F
:1022F0007F03012B14D11C4B1B685B79002B0FD182
:10230000194B1B689B78222B02D1184BFB6014E001
:10231000154B1B689B78212B0FD1154BFB600CE0F4
:10232000114B1B681B7803F07F03212B06D1FB792F
:10233000032B03D10F4BFB6000E000BFFB68002BB9
:1023400001D102230BE0084B1B68FA689A61064B27
:102350001B6800225A82FB68002098470023184619
:102360001037BD4680BD00BF7C0100203524000829
:1023700059240008D524000880B582B000AF034678
:10238000FB71094B1B681B7803F07F03212B06D1DF
:10239000FB790B2B03D100F089F8034600E0022300
:1023A00018460837BD4680BD7C01002080B582B04C
:1023B00000AF0346FB80FB8804491846FEF7B0F9DE
:1023C000034618460837BD4680BD00BFA000002068
:1023D00080B582B000AF0346FB80FB8804491846F5
:1023E000FEF79EF9034618460837BD4680BD00BF7C
:1023F000A800002080B584B000AF0346FB800B4BE3
:102400001B68DB78FB73FB7B042B01D9002309E0FD
:10241000FB7BDB00064A1A44FB8811461846FEF790
:102420007FF9034618461037BD4680BD7C01002069
:10243000C000002080B582B000AF0346FB80FB885F
:1024400004491846FEF76CF9034618460837BD469E
:1024500080BD00BFB000002080B582B000AF034651
:10246000FB80FB8804491846FEF75AF903461846D4
:102470000837BD4680BD00BFB800002080B483B0DF
:1024800000AF03460A46FB711346BB71BB79002BB4
:1024900001D0022305E0FB79002B01D0022300E0EC
:1024A000002318460C37BD4680BC704780B483B00B
:1024B00000AF064B1B68DB78FB71FB79044A1360A5
:1024C000002318460C37BD4680BC70477C010020B5
:1024D0004801002080B483B000AF0346FB80FB8836
:1024E000002B05D1054B1B6801221A82002300E056
:1024F000034B18460C37BD4680BC70477C0100205A
:102500004801002080B400AF00BFBD4680BC7047CA
:1025100080B400AFFEE700BF80B400AFFEE700BFAD
:1025200080B400AFFEE700BF80B400AFFEE700BF9D
:1025300080B400AF00BFBD4680BC704780B400AF20
:1025400000BFBD4680BC704780B400AF00BFBD4631
:1025500080BC704780B400AF054B1B78DBB2013301
:10256000DAB2034B1A7000BFBD4680BC704700BF93
:102570002801002080B500AF00F0CEFD00BF80BD77
:1025800080B500AF002000F061F9122000F0B0FB30
:1025900000BF80BD80B487B000AF78603960002391
:1025A0007B6100233B610023FB6000237B617EE0B5
:1025B00001227B6902FA03F33B613B681A683B69BD
:1025C0001340FB60FA683B699A426DD13B681B7906
:1025D000012B03D03B681B79022B36D17B689A68AC
:1025E0007B695B00032101FA03F3DB431A407B683C
:1025F0009A607B689A683B685B7919467B695B00E7
:1026000001FA03F31A437B689A607B689B889AB24D
:102610007B699BB2012101FA03F39BB2DB439BB2BE
:1026200013409AB27B689A807B689B889BB29AB26F
:102630003B689B7919467B699BB201FA03F39BB215
:1026400013439BB29AB27B689A807B681A687B6955
:102650005B00032101FA03F3DB431A407B681A6035
:102660007B681A683B681B7919467B695B0001FA35
:1026700003F31A437B681A607B68DA687B699BB254
:102680005B00032101FA03F3DB431A407B68DA6045
:102690007B68DA683B68DB7919467B695B0001FA85
:1026A00003F31A437B68DA607B6901337B617B69E2
:1026B0000F2B7FF67DAF00BF1C37BD4680BC704737
:1026C00080B483B000AF78600B467B807A887B68EB
:1026D0009A6100BF0C37BD4680BC704780B483B0A0
:1026E00000AF78600B467B807B687A881A8500BFD4
:1026F0000C37BD4680BC704780B485B000AF7860B1
:102700000B467B8013467B700023FB600023BB607D
:102710007A787B8803F007039B0002FA03F3FB60DF
:102720007B88DB089BB218467B88DB089BB21A4685
:102730007B68083253F822207B8803F007039B0054
:102740000F2101FA03F3DB4302EA03017B6800F186
:10275000080243F822107B88DB089BB21A467B688C
:10276000083253F82220FB681343BB607B88DB08E8
:102770009BB21A467B680832B96843F8221000BF42
:102780001437BD4680BC704780B582B000AF0120D1
:10279000FFF780FC0123FB800C4AFB8813600C4B85
:1027A00000221A80094B0A4A12881A60094B00223B
:1027B0001A60074B4FF4E0521A80044B044A128807
:1027C0001A60002318460837BD4680BD405C0040B3
:1027D00080010020445C004080B582B000AF0D4B0A
:1027E0001B68FB80FB8843F00803FB80094AFB88D9
:1027F0001360084B1B68FB80FB8843F00403FB80DD
:10280000044AFB881360FFF7D1FB00BF0837BD46C1
:1028100080BD00BF405C004080B582B000AF0A4B75
:102820001B68FB80FB8823F00403FB80064AFB88BF
:102830001360FFF7C7FB044B4FF43F421A6000BF21
:102840000837BD4680BD00BF405C004080B584B005
:1028500000AF0346FB71FB79072B02D0384AFB79A6
:102860001370374B1B78DBB2052B5DD801A252F8F1
:1028700023F000BF8D28000899280008A52800082B
:10288000B3280008D3280008F5280008FFF7C4FF84
:102890002B4B06221A704EE0FFF7BEFF284B042296
:1028A0001A7048E0264B02225A70254B03221A70F8
:1028B00041E0234B5B78DBB2013BDAB2204B5A702C
:1028C0001F4B5B78DBB2002B32D11D4B04221A70F8
:1028D0002EE01C4B1B68FB81FB8943F01003FB813E
:1028E000184AFB891360164B05221A70144B0A22F2
:1028F0005A7020E0124B5B78DBB2013BDAB2104B2E
:102900005A700F4B5B78DBB2002B13D10D4B1B6859
:10291000FB81FB8923F01003FB810A4AFB891360CA
:10292000074B06221A7005E0054B06221A7002E0DA
:1029300000BF00E000BF00BF1037BD4680BD00BF34
:102940004C010020405C004080B500AF094B0A4AB2
:102950001A60084B1B6802221A72084B084A1A6058
:10296000084B094A1A60054B1B681B68984700BF53
:1029700080BD00BF7C0100205C01002054010020CC
:102980004C000020780100207C00002080B483B03F
:1029900000AF03463960FB7197F90730002B0BDA63
:1029A0000D49FB7903F00F03043B3A68D2B21201E0
:1029B000D2B20B441A7609E0084997F907303A6811
:1029C000D2B21201D2B20B4483F8002300BF0C37FD
:1029D000BD4680BC704700BF00ED00E000E100E0B4
:1029E00080B582B000AF78607B68B3F1807F01D39F
:1029F000012311E00A4A7B6823F07F43013B5360C7
:102A00000F214FF0FF30FFF7C1FF054B00229A6006
:102A1000034B07221A60002318460837BD4680BDC5
:102A200010E000E080B500AF1A48FEF7CFFB194B6D
:102A30005B68194AA2FB03235B091846FFF7D0FF26
:102A400000F032F800BF154B1B78DBB2042BFAD133
:102A5000124B00221A7000F03BF80246104B1A602D
:102A60000F4B1B6801331B78002B05D10C4B1B68E7
:102A700002331B78002BE5D00A4B00221A70084B5A
:102A80001B6804221946812000F062F90120FFF73B
:102A900073F8D7E7880100201F85EB51280100203B
:102AA00084010020E100002080B500AFFFF724FA88
:102AB000FFF770FAFFF7C4FAFFF746FF00BF034BBA
:102AC0001B68052BFBD100BF80BD00BF200100208B
:102AD00080B400AF084B00225A70074B00229A7056
:102AE000054B5B78013BDAB2034B5A70024B184638
:102AF000BD4680BC704700BF2C01002080B485B06B
:102B000000AF78600023FB60754BFB607B689B79AE
:102B1000002B00F0C8807B681B685B0903F1007321
:102B200003F502635B0118467B681B685B0903F1D0
:102B3000007303F502635B011A687B681B6803F08E
:102B40001F03012101FA03F3DB43134003607B6899
:102B50001B685B095A01634B134418467B681B686A
:102B60005B095A015F4B13441A687B681B6803F0CA
:102B70001F03012101FA03F3DB43134003607B6869
:102B80001B791A467B681B685B095B011344FA6872
:102B90001344FB60FB68FA6812687968096801F001
:102BA0001F01012000FA01F10A431A604C4BFB603F
:102BB0007B681B685B095A014B4B134418467B68C2
:102BC0001B685B095A01484B13441A687B681B68F1
:102BD00003F01F03012101FA03F3DB4313400360F9
:102BE0007B681B685B095A01404B134418467B689D
:102BF0001B685B095A013D4B13441A687B681B68CC
:102C000003F01F03012101FA03F3DB4313400360C8
:102C10007B685B79102B2ED17B681B685B095A019E
:102C2000314B134418467B681B685B095A012E4BD5
:102C300013441B687A68126802F01F02012101FA2E
:102C400002F2134303607B681B685B095A01274B40
:102C5000134418467B681B685B095A01234B1344D5
:102C60001B687A68126802F01F02012101FA02F261
:102C7000134303602FE07B685B791A467B681B680F
:102C80005B095B011344FA681344FB60FB68FA6854
:102C900012687968096801F01F01012000FA01F14A
:102CA0000A431A6017E07B681B791A467B681B6829
:102CB0005B095B011344FA681344FB60FB68FA6824
:102CC00011687A68126802F01F02012000FA02F20D
:102CD000D2430A401A6000BF1437BD4680BC70471B
:102CE0000004014004040140080401400C040140B8
:102CF00080B483B000AF78607B685B095A01074BF2
:102D0000134419467B6803F01F03012202FA03F300
:102D10000B6000BF0C37BD4680BC704714040140F7
:102D200080B400AF074B00221A60074B4FF43F42BC
:102D30001A80064B044A12881A6000231846BD46C2
:102D400080BC7047445C004080010020405C004033
:102D500080B584B000AF0346B9607A60FB73FB7B3B
:102D600003F07F03DBB21846FFF71AF80346194653
:102D70007B689BB21A46B86800F066F9FB7B03F0EB
:102D80007F03DBB27A6892B211461846FFF73CF82F
:102D9000002318461037BD4680BD00BF80B500AF88
:102DA0001B4A1B4B1B6843F0010313601849184B67
:102DB0005A68184B13404B60154A154B1B6823F09B
:102DC000847323F480331360114A114B1B6823F47E
:102DD000802313600E4A0E4B5B6823F4FE0353609E
:102DE0000B4A0B4BDB6A23F00F03D3620849084BF5
:102DF0001A6B094B13400B63054B00229A6000F0DD
:102E00000FF8064B4FF000629A6000BF80BD00BF14
:102E1000001002400CC07FF8CCFC00FF00ED00E089
:102E200080B483B000AF00237B6000233B60324A54
:102E3000314B1B6843F4803313602F4B1B6803F442
:102E400000333B607B6801337B603B68002B03D120
:102E50007B68B3F5A06FF0D1274B1B6803F40033F8
:102E6000002B02D001233B6001E000233B603B6864
:102E7000012B3CD1214B12221A601F4A1E4B5B686A
:102E800053601D4A1C4B5B6853601B4A1A4B5B68BE
:102E900043F480635360184A174B5B6823F47C1338
:102EA0005360154A144B5B6843F4E8135360124AAD
:102EB000114B1B6843F08073136000BF0E4B1B68FF
:102EC00003F00073002BF9D00B4A0B4B5B6823F027
:102ED00003035360084A084B5B6843F002035360E6
:102EE00000BF054B5B6803F00C03082BF9D100BF52
:102EF0000C37BD4680BC70470010024000200240E5
:102F000080B483B000AF7860054A7B6843F0BF634C
:102F100043F40033D36000BF0C37BD4680BC70471C
:102F200000ED00E080B487B000AF786000237B61E3
:102F300000233B610F23FB607B68DB78002B3AD0DA
:102F4000274BDB68DB4303F4E0631B0A7B617B698F
:102F5000C3F104033B61FA687B6922FA03F3FB6067
:102F60007B685B781A463B6902FA03F37B617B68F6
:102F70009B781A46FB6813407A6913437B617B692F
:102F80001B017B61174A7B681B787969C9B21344BE
:102F90000A4683F80023134A7B681B785B09DBB27F
:102FA00018467B681B7803F01F03012101FA03F325
:102FB00042F820300FE00B497B681B785B09DBB2DD
:102FC00018467B681B7803F01F0301229A4000F12A
:102FD000200341F8232000BF1C37BD4680BC70474A
:102FE00000ED00E000E100E080B400AF034B0122FF
:102FF0001A7000BFBD4680BC704700BFE1000020D2
:10300000002103E00A4B5B584350043109480A4B46
:1030100042189A42F6D3094A02E0002342F8043BE0
:10302000074B9A42F9D3FFF7B9FEFFF7FBFC704755
:1030300006330008000000201C0100201C010020B5
:10304000C8010020FEE7000080B489B000AF7860BE
:103050000B467B8013463B803B8801335B107B61D2
:103060007B8803F1005303F540535B00BB617B6930
:10307000FB611BE07B681B783B617B6801337B60F5
:103080007B681B781B021A463B691343FB60BB69D4
:103090009A1CBA61FA6892B21A80BB690233BB61AA
:1030A0007B6801337B60FB69013BFB61FB69002BA3
:1030B000E0D100BF2437BD4680BC704780B487B0E4
:1030C00000AF78600B467B8013463B803B88013322
:1030D0005B10FB607B8803F1005303F540535B00FA
:1030E0003B61FB687B610EE07B685A1C7A603A6941
:1030F000111D3961126892B21A807B6801337B60BE
:103100007B69013B7B617B69002BEDD100BF1C37E4
:10311000BD4680BC704700BF80B500AF404B1B6808
:103120009AB2404B1A803F4B1B889BB203F400437A
:103130003D4A12881340002B01D0FEF7F9FA394BB3
:103140001B889BB203F48063374A12881340002B1C
:1031500006D0334B4FF6FF321A60344B5B6898470A
:10316000304B1B889BB203F400532F4A1288134044
:10317000002B03D02A4B4DF6FF721A60294B1B8897
:103180009BB203F48053284A12881340002B06D0C8
:10319000234B4EF6FF721A600020FFF757FB214BBE
:1031A0001B889BB203F400631F4A12881340002B54
:1031B0000ED01F4B1B78DBB2002B02D0FFF70CFBAD
:1031C00002E00220FFF742FB154B4FF2FF721A603C
:1031D000144B1B889BB203F40073134A12881340EC
:1031E000002B0AD00E4B4FF6FF521A60114B1B7882
:1031F000DBB20133DAB20F4B1A700A4B1B889BB259
:1032000003F48073084A12881340002B06D0044B45
:103210004FF6FF621A600720FFF718FB00BF80BD62
:10322000445C0040C4010020800100204C000020CC
:10323000E0000020300100201201000200000040E8
:10324000830410570002010203010000090222005A
:10325000010100E03209040000010301020009211C
:1032600000010001224A000705810304002000003C
:1032700005010902A1010901A1000509190129039C
:1032800015002501950375018102950175058101E0
:1032900005010930093109381581257F7508950325
:1032A0008106C0093C05FF0901150025017501953E
:1032B00002B12275069501B101C0000004030904A2
:1032C0002603530054004D006900630072006F0034
:1032D00065006C0065006300740072006F006E0092
:1032E00069006300730000001E03530054004D008A
:1032F0003300320020004A006F0079007300740030
:06330000690063006B0090
:103306000000000001020304010203040607080985
:103316000000010002000400060008000A000C007C
:103326001000200040008000000100001A03530036
:1033360054004D0033003200310030000000000020
:103346000000000000000000020100009D210008AE
:10335600C9210008BD220008C9220008D52200089C
:10336600792300087D240008AD230008D123000836
:10337600F52300080000000040000000D9100008F6
:1033860079220008D9100008D9100008D9100008C1
:10339600D9100008D9100008D9100008A522000885
:1033A60038320008120000004C32000822000000EB
:1033B600703200084A0000005E3200080900000072
:1033C600BC32000804000000C032000826000000DD
:1033D600E83200081E0000002C0000201A00000041
:1033E60001010000E92F0008D9100008D9100008D3
:1033F600D9100008D9100008D9100008D910000803
:10340600D9100008D9100008D9100008D9100008F2
:0C341600D9100008D9100008D9100008D7
:0400000508000000EF
:00000001FF
